:020000040800F2
:10000000289A00209559010805F8000807F800080B
:100010001DF8000821F8000825F80008000000007D
:100020000000000000000000000000004501000882
:100030002BF800080000000089010008593301086E
:10004000AF590108AF590108AF590108AF5901086C
:10005000AF590108AF590108AF590108AF5901085C
:10006000AF5901084F150108FFF70008AF59010803
:10007000AF590108AF590108AF590108AF5901083C
:10008000AF590108AF590108AF590108AF5901082C
:10009000AF590108AF590108AF5901088718010885
:1000A000AF59010801F80008AF590108AF5901081C
:1000B000491701089115010803F80008AF59010814
:1000C000AF590108AF590108AF590108AF590108EC
:1000D000AF5901081DFA00087BFA00089DFA0008D4
:1000E000AF590108AF590108AF590108AF590108CC
:1000F000AF590108AF590108AF590108AF590108BC
:10010000AF590108AF590108AF590108AF590108AB
:100110007DFA00087FFA0008AF590108AF590108BD
:10012000AF590108AF590108AF590108AF5901088B
:10013000DFF80CD016F0F4FB00480047F902000885
:10014000289A0020204B19680868B0E8F00F80F367
:100150000988BFF36F8F4FF0000080F311884EF0D5
:100160000D0E70470000000006480068006880F32C
:10017000088862B661B6BFF34F8FBFF36F8F00DFA1
:1001800000BF00BF08ED00E0EFF30980BFF36F8F01
:100190000D4B1A6820E9F00F106008B54FF0BF0052
:1001A00080F3118812F038FC4FF0000080F31188C2
:1001B000BDE8084019680868B0E8F00F80F30988C6
:1001C000BFF36F8F704700BFEC060020EFF3118084
:1001D0004FF0BF0181F31188704780F31188704799
:1001E000EFF30580704700001FB500200423CDE920
:1001F0000030029003464FF4007226A10390284875
:1002000012F030F900200323CDE9003002900346BC
:100210004FF4007223A10390274812F023F9002025
:100220000223CDE90030029003464FF4007223A16F
:100230000390244812F016F900200123CDE9003084
:10024000029003464FF480721FA10390214812F0E0
:1002500009F900200123CDE90030029003464FF454
:1002600080621DA103901F4812F0FCF800200523B6
:10027000CDE900300290034680221BA103901D4867
:1002800012F0F0F81FBD10B5FFF7AEFF12F014FD2D
:1002900010BD0000616872735F7461736B000000D1
:1002A0005D4400086D6F74696F6E5F636F6E74728A
:1002B0006F6C5F7461736B008B9D000870726F636D
:1002C000657373001D22000846424D3332305F745F
:1002D00061736B0017B500086170705F7461736BB8
:1002E00000000000EB1300087267625F7461736BBB
:1002F000000000006DB7000810B54FF4A06015F0C5
:100300005BFB0121084613F059FF0121134813F04C
:100310006AFD0FF0F5FB04F02AFB0BF009FA10F070
:10032000EFFA0BF057FA0BF0D3FB11F01FFA0FF0B6
:10033000F5F904F049FD01F032FF022009F056F80A
:1003400000F02EFA00F0C7FC0BF0B4FB03F0E4FC65
:100350000FF0F6F9FFF797FF002010BD0002300004
:10036000002006E00021F74A126842F82010411CE4
:10037000C8B2F44989888142F4DC704710B5002086
:10038000F1490870F148EF49086008208880FFF7BC
:10039000E7FF0620EE49087010BD10B5EA48007866
:1003A000E0B909F0BDFFC8B90020EA490870012092
:1003B000E74908700020E8494860086003F0C8FC7D
:1003C000E64908600020E64908600BF077FBE54944
:1003D0000860FFF7C5FF0120DB49087010BD002051
:1003E000D94908700120DB4908700620D8490870F7
:1003F000704710B504460021204616F003F901D8D5
:1004000084F00044204610BDFEB5684605F031FC7E
:100410004FF08B41029815F026FE0646002130462B
:1004200016F0FAF801D2304601E086F000400746A7
:100430003946C4480DF06BF80446CB480460CB49FC
:10044000204616F0E9F801D2012500E000252846F3
:10045000FEBD2DE9F04786B04FF0000809F060FFBF
:1004600000287CD1B84800780128FAD109F01CFB9B
:10047000022875D103A805F0DCFBB74A049950683F
:100480004FF07C5205F090FCB3494860B24A0399A2
:1004900010684FF07C5205F087FCAF490860AC480B
:1004A000007807287DD2DFE800F07C048EA8C7FA28
:1004B000F8000BF003FBAB490968441AB4F57A7FE6
:1004C0004CD9AB48002100910B46AA4ACDE9011056
:1004D0000C2009F0F8F90BF0F1FAA249086003F0DA
:1004E00037FC05469E480068022830D929469B48BB
:1004F000006815F0B8FD8246002116F08DF805D28F
:1005000029469648006815F0AEFD06E02946934856
:10051000006815F0A8FD80F00040814616F013F841
:100520000646954A954B16F021F810D202208849CC
:1005300008700BF0C3FA92490860924800210091BC
:100540000B46914ACDE901100E2009F0BCF9834811
:10055000056083480068401C8149086001E0DFE0D5
:10056000ACE0FFF751FF30B10520794908700BF07E
:10057000A5FA7C49086078494868FFF73AFF0646C3
:10058000824916F049F816D373490868FFF731FF1E
:1005900006467E4916F040F80DD36F4948687C49FD
:1005A00000E089E016F02EF805D36B490868784919
:1005B00016F028F806D20520654908700BF07EFA7F
:1005C0006849086079E00BF079FA6D490968401ACA
:1005D000B0F5967F10D903205D4908700020009087
:1005E00001900346024601460290092009F06BF98A
:1005F0000BF064FA624908605FE00BF05FFA604953
:100600000968401A40F2DC51884214D9012050494F
:1006100008705748002100910B464FF07E52CDE9FB
:1006200001100C2009F04FF90BF048FA4D49086011
:1006300000204B49086040E00BF040FA044649496D
:100640000968601A15F016FF8246524915F043FDFD
:100650008146514915F00DFD0746504915F006FD3C
:10066000064615F043FF1FFA80F8404609F0E2F90C
:1006700000200090019003464FF07E520146029008
:100680001F2009F020F937480068201AB0F5FA6FEA
:1006900002D905202E4908700FE00CE0FFE708F0B2
:1006A00092FE01202B49087000202749087006207F
:1006B0002749087001E000E000BF37E009F0F4F9D5
:1006C000012803D009F0F0F9032808D108F07BFED7
:1006D00001202049087000201B49087026E009F01D
:1006E000E3F9062808D108F06EFE012019490870C8
:1006F00000201549087019E009F0D6F9052808D13D
:1007000008F061FE01201349087000200E490870AE
:100710000CE001200F49087000200B49087005E02B
:1007200001200C49087000200749087006B0BDE898
:10073000F0870848007870470548007870470248FD
:10074000007870471800002002000020A808002050
:1007500000000020010000209C080020080000206C
:100760000C00002004000020140000200000C844F9
:100770009A9999BF000040409A9999999999C93FCF
:1007800010000020000080C0CDCC4C3E000048424C
:10079000000048C20000FA4400007A4400004843C8
:1007A00010B5012056490870002056490870564976
:1007B0000870FFF7E3FD00F0A9F801F02DFB01F050
:1007C0005FF800F0D9FE01F01BFC10BD10B5012050
:1007D0004C49087000204C490870494800780428AA
:1007E00004D0052805D0082809D105E001F023FB35
:1007F00006E0FFF7D2FD03E000F08FF800E000BF55
:1008000000BF10BD3E490978052903D03C4909784D
:10081000082901D1002000E00120704770B504468E
:100820000025FFF7EFFF012804D135480470FFF7DA
:10083000CDFF0125284670BD31480078704710B5BE
:1008400000203049087001202F490870FFF7C7FDCC
:1008500000F083F801F0FEFA01202949087010BD6C
:1008600028480078704710B500F084F800F0EFF9E0
:10087000012803D1244908702149087010BD10B522
:10088000FFF7E7FDFFF755FF012803D11C4908706A
:100890001D49087010BD10B501F0E9FA01F091FB97
:1008A000012803D1184908701549087010BD10B50A
:1008B000FFF7D6FF01281AD109F0F0F8012816D168
:1008C0000F480078042804D0052805D0082809D14D
:1008D00005E0FFF7E0FF09E0FFF7D1FF06E0FFF7D3
:1008E000C2FF03E001200849087000BF00BF00F00C
:1008F000CEFF00F049FE10BD0348007870470000AD
:100900002000002021000020220000200720D149E3
:1009100008700020D0490870704710B50020CF49FA
:1009200008700120CE49087009F0FAFC012802D1B4
:100930000020C94908700020CA4908600120C54943
:1009400008700BF0BBF8044615F094FDC64908602A
:1009500008460068C549086010BD0020C0490870FD
:100960000120BE4908700020BB4908700720B94922
:10097000087070472DE9F04F8BB000200A90824636
:10098000834606904FF07E500590B9480490B248D7
:100990000078002878D1B24800780128FAD10AF00E
:1009A0003EFF069009F080F802286ED1A948007831
:1009B000012806D002281CD0052867D0062871D14E
:1009C000F3E000204FF07E52CDE9002003464FF0C7
:1009D0007C5201460290042008F075FF0BF06EF87F
:1009E000044615F047FDA0490860022099490870A7
:1009F000F2E003F0B0F983464FF07E51584615F00F
:100A00000BFE01D24FF07E5B4FF07C525946954869
:100A1000006805F0C9F9934908609649069815F0F1
:100A2000FBFD02D29448049001E091480490904864
:100A300004900BF043F8054615F01CFD04468A4867
:100A40000168204615F00FFB0A9004990A9815F0EA
:100A5000E3FD28D20BF032F8044615F00BFD824975
:100A6000086005207B4908708249069815F0D4FD7E
:100A70000DD28248002100910B46814ACDE9011038
:100A80000C2008F020FF3CE0D8E0A6E03AE000208F
:100A90000090019003467B4A014602900C2008F02A
:100AA00012FF2EE091E06F48006815F04CFD0446FF
:100AB0000022754B15F072FD23D20AF0FFFF0446A9
:100AC00015F0D8FC6849086005206249087069493A
:100AD000069815F0A1FD0AD26848002100910B4646
:100AE000674ACDE901100C2008F0EDFE09E0002076
:100AF000009001900346634A014602900C2008F0E2
:100B0000E2FE69E00AF0DAFF054615F0B3FC0446A0
:100B100055480168204615F0A6FA0A905B490A98E4
:100B200015F070FD14D25349069815F075FD02D2E8
:100B30005748059002E04FF08040059007A809F063
:100B40007DFA0598099007A807C809F051FA2BE02B
:100B50004E490A9815F060FD23D24E490A9815F0C7
:100B600051FD1ED207A809F069FA0A9815F0EBFCAE
:100B700080460022484B15F08DFB484A484BCDE992
:100B8000020115F08DFB0646464A474B15F0E1FA87
:100B9000044615F01BFD099007A807C809F028FABC
:100BA00002E006202B49087016E007A809F046FA73
:100BB0003E48099007A807C809F01AFA00202849FA
:100BC000087001202549087006E0002024490870BB
:100BD00001202249087000BF36E008F065FF0128B7
:100BE00010D1002000900346314A0146CDE9010AA8
:100BF000092008F068FE00201949087001201749F3
:100C0000087021E008F050FF062810D10020009065
:100C10000346274A0146CDE9010A092008F053FEA0
:100C200000200F49087001200C4908700CE00020DA
:100C30000B49087001200949087005E000200849A7
:100C400008700120054908700BB0BDE8F08F03481B
:100C50000078704726000020270000202400002094
:100C600025000020280000202C000020300000205B
:100C7000000048430000AA4200001643000080BF65
:100C8000CDCCCC3DCDCC4C3D0000E03F0000164427
:100C90009A99993F00803B4500C082404F1BE8B4C1
:100CA000814E2B3F9A9999999999F93F666606402A
:100CB0000000404010B500240AE0FE4A02EB841117
:100CC000FD4A02EB0410102210F0E2FF601CC4B2D7
:100CD0000C2CF2DB10BD10B50020F8490860F84973
:100CE0000870F8490870F848F84908600220F84987
:100CF0000880FFF7DFFF00F07FFE10F0B0FF0AF082
:100D0000DDFEF44908600420F34908700020F3492F
:100D1000087010BD10B50024EF480078012806D0F7
:100D2000022824D003282FD0042848D137E00EF021
:100D30000EFD04460CF0F5FDA8B9022C13D1E748CE
:100D40000078401CE54908700846007805280DDD4C
:100D5000002010F075FF0AF0B1FEDE4908600220A5
:100D6000DD49087002E00020DC49087028E00AF044
:100D7000A5FED8490968401A41F28831884202D953
:100D80000320D54908701BE0012010F059FF0AF03C
:100D900095FED04908600420CF49087010E00AF0A1
:100DA0008DFECC490968401A40F6B831884205D911
:100DB0000020CA4908700120C749087000E000BF40
:100DC00000BF10BD10B50AF02AFD0446C4492046F4
:100DD00015F018FC05D2C3480088401CC1490880A2
:100DE00002E00020BF490880BE4800880A2802DDD2
:100DF0000120B449087010BD70B506460D460C2D93
:100E000000DB70BDAC4901EB051010F055FF58B97F
:100E1000042010F092FF044634B12660A64901EB8D
:100E20000510214610F06DFF00BFEAE72DE9F047FD
:100E3000B8B00CF0A0FA012878D1AB4800780128AE
:100E400039D10EF071FC0546A849284615F011F974
:100E5000054602F07DFF0646A449304615F009F923
:100E6000064620A802F084FFA049229815F001F957
:100E700022901AA809F0E2F89C491C9815F0F9F89C
:100E80001C9003F07EFE81469949484615F023F9EF
:100E9000814611A804F0EDFE2C952D9693499548B6
:100EA000006815F0E6F82E9022982F901C9830904C
:100EB000CDF8C4904FE18C48007802281CD126A8B8
:100EC00004F0C2FE8A49279815F0D3F82C9088497F
:100ED000269815F0CEF82D9004F0BEFE8246844987
:100EE00015F0F9F82E9026A800692F9029983090D7
:100EF00026A8406931902EE17B480078032816D15E
:100F0000002410E014A901EB840021460AF06DFFD3
:100F100014A951F82400754915F0ABF82CA941F833
:100F20002400601CC4B2062CECDB14E120E16E4806
:100F30000078042822D126A804F086FE11A804F027
:100F400098FE6B49119815F0C6F82C9068491298D4
:100F500015F0C1F82D904FF08B41139815F083F8E0
:100F60008246634915F0B7F82E9026A800692F90A5
:100F70002998309026A840693190ECE05A480078D2
:100F8000052818D1002413E0204610F071F90EA9AD
:100F900021F814000EA830F814000A2190FBF1FA91
:100FA000504615F05EFA2CA941F82400601CC4B22A
:100FB000062CE9DBCFE04C480078062825D10BA8A9
:100FC00009F0C8FA05F022F805464849284615F008
:100FD00050F8054648490B9815F07DF82C90434988
:100FE0000C9815F078F82D9040490D9815F041F8BF
:100FF0002E902F950AF0F2FB82463D4915F039F804
:1010000030900AF00CFC3190A5E0374800780728B2
:101010002DD102F09DFE80463449404615F029F856
:10102000804609F08BFA06463049304615F021F823
:10103000064604F0EBFF05462C49284615F019F842
:10104000054605F0D9F807460BA809F083FA2749A9
:101050000D9815F00EF82C902D96CDF8B8802F95A0
:10106000309722490C9815F036F8319073E01E48FD
:101070000078082868D104F0C9FF05461B492846B6
:1010800014F0F7FF054605F0B7F807460BA809F07E
:1010900061FA07A807F0A2FA20A80CF02BFC1DA803
:1010A00002F066FE04A80CF01CFC01A808F0C6FFC4
:1010B00026A823E088090020C8080020340000206A
:1010C0003D0000203E0000200000A0414C00002018
:1010D0005000002044000020420000204800002072
:1010E0000000704140000020490000200000C8427C
:1010F000000020417004002000007A4404F0A4FDA8
:1011000023A80CF009FCF949F948006814F0B1FF74
:101110002C90F649F748006814F0ABFF2D90F64983
:101120001D9814F0A6FF2E90F3491E9814F0A1FF0D
:101130002F900499019814F096FF30900599029829
:1011400014F091FF319006E000202C902D902E900D
:101150002F9030903190002407E02CA951F8240002
:101160002146FFF749FE601CC4B2062CF5DBDFE028
:101170000CF001F90228FAD1E04800680A21B0FB1E
:10118000F1F201FB12000028F1D1DD4800780128BE
:1011900044D104F03BFF0546D749284614F069FFC7
:1011A000054605F029F8074609F0C8F90646D24970
:1011B000304614F05EFF06460BA809F0CBF920A8D4
:1011C00002F0D6FD2C95CF490B9814F084FF2D909A
:1011D000C9490C9814F07FFF2E902F9622983090DA
:1011E0000AF0FCFA8246C14914F043FF3190002412
:1011F00011E014A901EB840021460AF0F6FD14A9C0
:1012000051F82400BC4914F034FF2CAAA11D42F867
:101210002100601CC4B2062CEBDB7DE0B8480078EE
:10122000022847D104F0F2FE0546B349284614F0DF
:1012300020FF054604F0E0FF074609F07FF9064667
:10124000AD49304614F015FF06460BA809F082F9A7
:1012500020A802F08DFD2C95AA490B9814F03BFFB5
:101260002D90A5490C9814F036FF2E902F962298B9
:1012700030900AF0B3FA82469C4914F0FAFE31909D
:10128000002414E020460FF0F3FF0EA921F814000B
:101290000EA830F814000A2190FBF1FA504615F020
:1012A000E0F82CAAA11D42F82100601CC4B2062C53
:1012B000E8DB31E09248007803282DD1002410E0CB
:1012C00014A901EB840021460AF08FFD14A951F8FE
:1012D0002400894914F0CDFE2CA941F82400601C9B
:1012E000C4B2062CECDB002414E020460FF0C0FF53
:1012F0000EA921F814000EA830F814000A2190FB62
:10130000F1FA504615F0ADF82CAAA11D42F82100C3
:10131000601CC4B2062CE8DB002407E02CA951F8BD
:1013200024002146FFF768FD601CC4B20C2CF5DBDD
:1013300038B0BDE8F08710B5002410F02AFA044652
:101340006CB908F0EDFF50B908F0AEFB052802D1EA
:1013500008F039F80CE001206B49087008E03CB94E
:1013600008F0DEFF012803D1FFF769FA08F02BF837
:1013700010BD10B56448007801280BD100206249E7
:1013800008706248007828B901206049087005207B
:10139000FFF744FA5D480078012807D1FFF7ACFA5F
:1013A0000446012C02D100205849087010BD08B530
:1013B000684608F099FF9DF8000028B95448007865
:1013C000401C5349087002E0002051490870504801
:1013D0000078012808DD07F051F928B900204C49B0
:1013E000087001204849087008BD53E04348006870
:1013F000401C4249086008460068464908603F486A
:10140000007800F0010018B9FFF7D1FFFFF7B1FF36
:101410003A4800681421B0FBF1F201FB120018B940
:1014200000F0C7FCFFF787FF3448007800F00100A8
:1014300060B90AF0D2FC0AF0F3FC012806D108F0EA
:101440006FFF18B9FFF7FBF907F0BDFF2B480068E5
:1014500031490988B0FBF1F201FB120008B9FFF72E
:10146000E5FC264800680521B0FBF1F201FB120003
:1014700018B9FFF7A7FC0EF0A3F9204800680A216D
:10148000B0FBF1F201FB120008B9FFF743FC0A20A0
:1014900011F016FAAAE72DE9F04105460C4600279F
:1014A0000C2C02DB3846BDE8F0811C4901EB04102E
:1014B00010F0F9FB68B9194901EB041010F032FC87
:1014C000064635B130682860304610F03EFC0026F4
:1014D00001273846E7E770B504460C2C20DA0F499F
:1014E00001EB041010F0F4FBC5B21AE0000020413B
:1014F00074040020780400200000C842340000205A
:101500004900002000007A443E0000203D000020F9
:101510003C0000203800002050000020C8080020B7
:101520000025284670BD10490870704770B5044604
:101530000021204615F066F800D270BD0B4804600B
:101540000B49006814F0C7FD054614F0CFFF0949A8
:10155000088008460088012801DA0120088000BFC1
:10156000EBE7024800687047490000204C0000206B
:1015700000002041500000200420B94908700020DC
:10158000B8494860086070472DE9F04192B00026E4
:10159000B3480078012804D0032874D0042873D1FC
:1015A00039E10FA804F045FBAE4A10995068AE4AE5
:1015B00004F0FAFBAB494860AA4A0F991068AA4A9E
:1015C00004F0F2FBA749086008F0AAFE00286ED1DB
:1015D00008F06AFA0228FAD107F053F8064601A883
:1015E00005F02FFA1C2201A908A814F0BDFC012E59
:1015F0003CD19C494868002115F00EF802D2994868
:10160000406803E09748406880F0004007469749EB
:1016100015F002F811D393490868002114F0FCFF7B
:1016200002D29048006803E08E48006880F00040D5
:1016300007468E4914F0F0FF17D20320884908703E
:101640000AF03CFA8A49086086484468056885F0D3
:10165000004784F000480020CDE900700346854A29
:10166000414602900E2008F02EF9C7E09DF82000B8
:10167000042872D17B494868002114F0CDFF04D2C0
:101680007848406805E0BAE0E5E07648406880F0D8
:1016900000400746754914F0BFFF12D3714908682E
:1016A000002114F0B9FF03D26E48006804E0A2E004
:1016B0006C48006880F0004007466C4914F0ACFFAD
:1016C000D3D20320664908700AF0F8F96849086027
:1016D000644948684FF0804114F0CBFC04466149EE
:1016E00008684FF0804114F0C4FC05465D49486825
:1016F000002114F091FF02D25A48406803E0594893
:10170000406880F0004007465B4914F085FF11D324
:1017100054490868002114F07FFF02D25148006844
:1017200003E05048006880F000400746524914F03A
:1017300073FF02D207F047FE60E085F0004784F0B7
:1017400000480020CDE9007003464A4A4146029015
:101750000E2008F0B8F851E0FFE701A805F071F994
:101760001C2201A908A814F0FFFB9DF82000062800
:101770003DDC3C494868002114F04EFF02D2394854
:10178000406803E03748406880F0004007463B4926
:1017900014F042FF11D333490868002114F03CFFD4
:1017A00002D23048006803E02E48006880F0004014
:1017B0000746324914F030FF20D203202849087030
:1017C0000AF07CF92A4908602648006880F0004742
:1017D0002448406880F000480020CDE900700346AE
:1017E000244A414602900E2008F06DF806E00420DD
:1017F0001B49087002E00420194908702BE00AF028
:101800005DF91B490968401AB0F5967F02D904209A
:10181000134908701FE0002012494860086008F072
:1018200043F9022816D108F07BFD98B906F029FF8C
:10183000064601A805F005F91C2201A908A814F024
:1018400093FB012E03D09DF82000062802DC012026
:101850000349087000BF00BF12B0BDE8F08100006E
:1018600054000020880C00206666663F000020417E
:1018700058000020CDCC4C3E0000C8410000A041E3
:1018800004205549087000205449086070472DE92C
:10189000F0418EB002F05CFA0746514A39464F4893
:1018A000006804F081FA4D4908604B48007801282F
:1018B00006D0022810D0032867D004280BD170E08E
:1018C0000AF0FCF847490860022043490870434881
:1018D0000068454908607BE008F0E6F8022853D12B
:1018E000684605F0AEF81C22694607A814F03CFBD8
:1018F0009DF81C00052803D108F012FD012802D133
:101900000420354908700AF0D9F836490968401AA8
:10191000B0F5FA6F38D9314801683348006814F0DF
:10192000A2FB8046002114F077FE06D22B48016806
:101930002D48006814F097FB07E0284801682A4802
:10194000006814F090FB80F00040064614F0FBFDA8
:1019500004464FF03332254B14F008FE11D2032019
:101960001D4908700AF0AAF81E49086020480021A5
:1019700000910B461F4ACDE901100E2007F0A3FF8E
:1019800002E004201449087022E00AF097F8154993
:101990000968401AB0F5967F02D904200E490870F4
:1019A00016E008F081F8022811D108F0B9FC70B9EE
:1019B000684605F046F81C22694607A814F0D4FAD8
:1019C0009DF81C00052802D101200349087000BFC2
:1019D00000BF0EB0BDE8F0815C0000206400002074
:1019E000CDCCCC3D60000020680000203333D33FD5
:1019F000000080C0CDCC4C3E0020F94908707F200B
:101A0000F84908700020F8490860704770B509F07F
:101A100006FF0546F549284614F0F4FD05D2F448C2
:101A20000088401CF249088002E00020F04908804C
:101A3000EF4800880A2804DD01240120ED490870E0
:101A400000E00024204670BD2DE9FC410026002462
:101A50000027002501208DF801008DF800008DF889
:101A60000200FFF7D3FF04460DF071FE0546E24881
:101A7000007800287ED1012C24D1E048007888B974
:101A800064208DF8050000208DF804008DF8060014
:101A90008DF801008DF800008DF802000120D74973
:101AA000087062E000208DF805008DF804008DF8C4
:101AB00006008DF801008DF800008DF80200CF4976
:101AC000087052E00BF02DFF58BB022D29D1C648FB
:101AD00000680A2825D9C948007890B900208DF8F7
:101AE000050064208DF804008DF8060000208DF8B4
:101AF00001008DF800008DF802000120BF49087038
:101B000033E000208DF805008DF804008DF8060004
:101B10008DF801008DF800008DF80200B7490870BB
:101B200023E0B648007888B964208DF805008DF868
:101B300004008DF8060000208DF801008DF80000EB
:101B40008DF802000120AD4908700EE000208DF8EC
:101B500005008DF804008DF806008DF801008DF861
:101B600000008DF80200A54908700021019809F0D5
:101B7000E5FD00E00BE00121009809F0DFFD022106
:101B8000009809F0DBFD05209649087008E1FEF792
:101B9000D6FD064600F018FA0746012E6CD1012C3E
:101BA00033D19648007898B932208DF8050000208E
:101BB0008DF804008DF8060032208DF80100002019
:101BC0008DF800008DF8020001208C4908700FE0AC
:101BD00032208DF8050000208DF804008DF80600F5
:101BE0008DF801008DF800008DF80200834908701F
:101BF0000021019809F0A2FD0121009809F09EFD45
:101C00000221009809F09AFDCAE07C48007898B952
:101C1000FA208DF8050000208DF804008DF80600EC
:101C20008DF8010096208DF8000000208DF802004C
:101C30000120724908700FE0FA208DF8050000209D
:101C40008DF804008DF806008DF801008DF8000075
:101C50008DF80200694908700021019809F06EFDB5
:101C60000121009809F06AFD0221009809F066FD43
:101C700005205C49087093E0012F1ED1FA208DF8F1
:101C8000050000208DF804008DF806008DF8010095
:101C90008DF8000096208DF802000021019809F0CF
:101CA0004DFD0121009809F049FD0221009809F03D
:101CB00045FD02204B49087072E00BF032FE20BB5C
:101CC000022D22D1484800680A281ED9FA208DF832
:101CD000050000208DF804008DF806008DF8010045
:101CE00096208DF800008DF802000021019809F07F
:101CF00025FD0121009809F021FD0221009809F03D
:101D00001DFD0620374908704AE03A48007801284E
:101D100023D13A480078032842D032208DF80500BC
:101D200000208DF804008DF8060032208DF80100A7
:101D300000208DF800008DF802000021019809F0C4
:101D4000FDFC0121009809F0F9FC0221009809F03E
:101D5000F5FC03202349087022E02248007804287B
:101D60001ED0FA208DF8050000208DF804008DF8B3
:101D700006008DF8010096208DF8000000208DF8F7
:101D800002000021019809F0D9FC0121009809F016
:101D9000D5FC0221009809F0D1FC042011490870FB
:101DA000BDE8FC8110B500240FF0F3FC044620468A
:101DB00010BD10B50C480068401C0B490860FFF7C7
:101DC000F1FF0D4908700846007810B90020044959
:101DD00008700348007898B9FFF736FE13E000005A
:101DE000710000206C000020740000200000704191
:101DF0006E00002070000020720000206D000020A6
:101E00007F200349087010BD024908707047000028
:101E10006C0000207100002001206D490870002036
:101E20006C4908706C49087001206C4908700020EA
:101E30006B490870704700206849087001206849A4
:101E400008700020644908706249087002206049E7
:101E50000870704700206249087001205F490870CF
:101E600000205C490870012059490870704770B51E
:101E70008AB0002457480078002879D15848007863
:101E80000128FAD107F010FE022872D150480078DC
:101E9000062831D2DFE800F081800331576E07A8B1
:101EA00001F066FF4F495048006814F0ABFB05D2C3
:101EB00049480078401C4849087002E00020464923
:101EC000087045480078032816DD03204049087053
:101ED00000204149087009F0F1FD054614F0CAFAE6
:101EE000424908604248002100910B46414ACDE931
:101EF00001100C2007F0E7FC4FE009F0DFFD06467B
:101F000014F0B8FA054639480168284614F0ABF8D1
:101F100004463949204614F07FFB13D209F0CEFD68
:101F2000054614F0A7FA31490860042028490870D2
:101F300000200090019003460246014602900920CD
:101F400007F0C1FC29E009F0B9FD064614F092FA49
:101F5000054626480168284614F085F804462649B7
:101F6000204614F059FB02D205201949087014E0EC
:101F70001FE013E004A808F061F82048069004A8C8
:101F800007C808F035F800201549087001201349EA
:101F900008701049087000E000BF10E007F084FDF1
:101FA00001280CD100200E49087001200B4908704F
:101FB00005E000200A4908700120084908700AB0AD
:101FC00070BD0648007870470548007870470000EB
:101FD0007A000020800000207B0000207800002094
:101FE00079000020000080BFB40300207C000020A6
:101FF0006666A63FCDCCCC3D0000C842CDCC4C3F60
:1020000004204D4908704D484D49086008208880DB
:102010007047FEB5684603F02CFE4FF08B410298E6
:1020200014F021F806460021304614F0F5FA01D2EA
:10203000304601E086F000400746394640480BF044
:1020400066FA05463F49284614F0E6FA01D2012413
:1020500000E000242046FEBD00B58FB0FEF76CFB0B
:10206000062864D101A804F0ECFC1C2201A908A8F0
:1020700013F07AFF9DF82000052807D108F050F9E9
:10208000012803D007F010FD022802D004202A49BD
:10209000087029480078012806D0022814D00328A7
:1020A0001DD0042842D126E009F008FD2649096820
:1020B000401AB0F57A7F06D909F000FD2249086080
:1020C00002201D49087031E0FFF7A3FF012805D168
:1020D0000520FEF7A3FB03201749087026E009F04E
:1020E000EDFC19490968401AB0F5FA7F02D90420BD
:1020F000114908701AE007F0D7FC022815D108F042
:102100000FF990B901A804F09CFC1C2201A908A8B1
:1021100013F02AFF9DF82000052806D1012006496A
:10212000087009F0CBFC0849086000BF02E00420F9
:10213000014908700FB000BD84000020940C0020FD
:102140008C000020008022458800002070471CB5CC
:10215000012000900122FA49FA4801F081F9012298
:1021600001A9684601F09CF8002414E0F64810F834
:1021700034009DF8041088420BD1F34800EBC400F2
:10218000406828B1F04800EBC4004168002088474F
:1021900003E0601CC4B23A2CE8D300BF1CBD10B5EC
:1021A000EA49EB4801F079FD0020EA490870EA4964
:1021B000086010BDF7B50D46164601220021E14822
:1021C000007801F0D0F901226946104601F048FA82
:1021D000002406E029190122104601F041FA601C92
:1021E000C4B2B442F6DB012001F0DEF9FEBD38B521
:1021F00009F015FB044614F079F9C0B28DF800001F
:1022000007F04CFC8DF8010008F08AF88DF8020008
:10221000032269464320FFF7CDFF38BD19E0CE48C1
:102220000068401CCC49086001F0BFFBCA48006848
:102230006421B0FBF1F201FB120028B9C548007817
:10224000012801D1FFF7D3FF01F0ECFC052010F0CD
:1022500037FBE4E710B5044607F0F4FB10BD10B5FA
:102260000446FEF7ECFA07F0AEF810BD13B50122F4
:102270000021B448007801F076F901226946104641
:1022800001F0EEF9012201A9104601F0E9F901205F
:1022900001F08AF91CBD70B5054607F0FFFB044646
:1022A00021460320FFF7E2FF70BD10B586B004465B
:1022B00006200590012204A905A800F0F1FF0122E3
:1022C00003A905A800F0ECFF002000900190034650
:1022D00002900620DDE9032107F0F5FA06B010BDF3
:1022E0001CB50446012001900122694601A800F0B6
:1022F000D7FF9DF80000FEF791FA1CBD30B58BB0FA
:10230000054601200A90012209A90AA800F0C8FF89
:1023100006200A90012208A90AA800F0C1FF0122A4
:1023200007A90AA800F0BCFF012206A90AA800F02C
:10233000B7FF012205A90AA800F0B2FF012204A9F3
:102340000AA800F0ADFF012203A90AA800F0A8FF27
:10235000069814F0CBF80446DDE9042103982346DF
:10236000CDE9001202909DF82400DDE9072107F075
:10237000AAFA0BB030BD1CB5044601200190012221
:10238000694601A800F08CFF9DF8000007F02EF8C8
:102390001CBD70B5054607F087FB044621460F209B
:1023A000FFF764FF70BD70B58CB0064601200B903E
:1023B00001220AA90BA800F073FF06200B9001224E
:1023C00009A90BA800F06CFF012208A90BA800F0D6
:1023D00067FF012207A90BA800F062FF012206A9EE
:1023E0000BA800F05DFF012205A90BA800F058FF23
:1023F000012204A90BA800F053FF9DF8284007987C
:1024000014F074F80546DDE9052104982B46CDE962
:10241000001202902046DDE9082107F01EFD0CB0F5
:1024200070BD38B5044607F096FD8DF8000007F042
:1024300098FD8DF80100022269461B20FFF7BAFEC5
:1024400038BD1CB50446012001900122694601A84F
:1024500000F026FF9DF8000006F077FF1CBD70B568
:10246000054607F03BFF044621461120FFF7FEFE1C
:1024700070BD1CB50446012001900122694601A8E7
:1024800000F00EFF9DF8000006F05CFF1CBD70B56B
:10249000054607F026FF044621461520FFF7E6FE15
:1024A00070BD1CB50446012001900122694601A8B7
:1024B00000F0F6FE9DF8000006F07AFD1CBD70B538
:1024C000054606F078FD044621461320FFF7CEFEB0
:1024D00070BD1CB50446002000900120019001222F
:1024E000694601A800F0DCFE9DF8000006F00EFF32
:1024F0001CBD70B5054607F040FF04462146172075
:10250000FFF7B4FE70BD1FB50446062003900122FC
:1025100002A903A800F0C4FE06200390012201A92D
:1025200003A800F0BDFE062003900122694603A81F
:1025300000F0B6FEDDE90021029807F084FD1FBD22
:1025400095000020940000209C0000204D210008F0
:102550004F2100089600002098000020F7B50D4696
:10256000164601220021FE48007800F0FCFF0122FF
:102570006946104601F074F8002407E005EB840179
:102580000122062001F06CF8601CC4B2B442F5DBF5
:10259000012001F009F8FEBD10B586B0044668467A
:1025A00001F0E6FB009803900198049002980590D2
:1025B000032203A92120FFF7D1FF06B010BD3EB5CD
:1025C0000446032002900122694602A800F068FE3A
:1025D0000320029001220DF1020102A800F060FE2A
:1025E00003200290012201A902A800F059FE032055
:1025F000029001220DF1060102A800F051FE042113
:10260000684607F0B4FC3EBD38B5054607F0C2FC8D
:10261000044613F02FFF0090012269462720FFF7A0
:102620009DFF38BD10B59CB0044616A803F00CFB06
:1026300003A807F0ECFE684601F05DFF03F00CFB19
:102640000D9017980E9016980F9001981090009882
:102650001190029812900398139004981490059882
:10266000159009220DA92320FFF778FF1CB010BD9B
:102670001FB5044606200390012202A903A800F01A
:102680000FFE062003900122694603A800F008FE11
:1026900006200390012201A903A800F001FE9DE895
:1026A000070007F0A5FC1FBD10B586B004466846BC
:1026B0000BF017F901F04CFB03900098049001987F
:1026C0000590032203A92520FFF748FF06B010BD9F
:1026D0001FB50446062003900122694603A800F0B6
:1026E000DFFD06200390012201A903A800F0D8FD18
:1026F00006200390012202A903A800F0D1FD9DE865
:10270000070007F063FC1FBD1FB5044606200390B9
:10271000012202A903A800F0C3FD062003900122B4
:1027200001A903A800F0BCFD062003900122694620
:1027300003A800F0B5FDDDE90021029807F0D2FC06
:102740001FBD10B586B004466A4601A902A809F06B
:10275000F3F80298039001980490009805900322E2
:1027600003A92C20FFF7FAFE06B010BD10B586B005
:1027700004466A4601A902A809F08AF90298039062
:102780000198049000980590032203A93320FFF7D5
:10279000E5FE06B010BD1FB50446062003900122D9
:1027A00002A903A800F07CFD06200390012201A9E4
:1027B00003A800F075FD062003900122694603A8D6
:1027C00000F06EFDDDE90021029802F05CF81FBD0B
:1027D0001CB50446062001900122694601A800F0BC
:1027E0005FFD009806F09FFD1CBD38B5044607F05C
:1027F000F8FB0090012269462E20FFF7AFFE38BD9E
:1028000070B5054607F08CFD044621462F20FFF7E2
:102810002DFD70BD10B588B004460620079001223A
:1028200006A907A800F03CFD06200790012204A994
:1028300007A800F035FD06200790012205A907A88A
:1028400000F02EFD474A484906980AF097FD069089
:10285000444A454904980AF091FD0490414A42498E
:1028600005980AF08BFD059001A807F0E7FB069993
:10287000039813F0A6FB06900499019813F0A1FBAE
:1028800004900599029813F09CFB059004A807C8D2
:1028900007F0AEFB08B010BD10B586B00446684620
:1028A00007F0CCFB029803900098049001980590E3
:1028B000032203A93220FFF751FE06B010BD1FB559
:1028C000044606200390012202A903A800F0E8FCB8
:1028D00006200390012201A903A800F0E1FC0620D4
:1028E00003900122694603A800F0DAFCDDE900212B
:1028F000029809F031F81FBD1CB504460020009075
:10290000012001900122694601A800F0C9FC9DF850
:10291000000003F058FD9DF80000022801D104F0EA
:1029200098F89DF80000032803D1012005F0ACFEC3
:1029300002E0002005F0A8FE1CBD1CB504460020E6
:102940000090012001900122694601A800F0A8FC36
:102950009DF80000012809D107F0CFFD0CE0000030
:10296000940000200000A0C00000A0409DF80000DE
:10297000022801D107F059FC1CBD30B58FB00546C7
:1029800000200C90009001200E9001220CA90EA8AE
:1029900000F086FC01200E90012269460EA800F08E
:1029A0007FFC9DF80000FEF7BEFD9DF83000FEF7AD
:1029B00092FD0B909DF82C000A2801DD0A200B9057
:1029C000002408E001A901EB84009DF83010FEF717
:1029D00062FD601CC4B29DF82C008442F2DB3B20F7
:1029E0000D9001220021F148007800F0BCFD012289
:1029F0000DA9104600F034FE01220CA9104600F08B
:102A00002FFE01220BA9104600F02AFE002408E048
:102A100001A800EB84010122062000F021FE601CC9
:102A2000C4B29DF82C008442F2DB012000F0BCFD12
:102A30000FB030BD1CB5044600200090012001906D
:102A40000122694601A800F02BFC9DF800000AF065
:102A50008FFC1CBD1CB50446D54800900620019093
:102A60000122694601A800F01BFC0098FEF75EFDFC
:102A70001CBD1CB5044600200090012001900122DD
:102A8000694601A800F00CFC9DF80000012802D165
:102A90000CF0E0F905E09DF80000022801D10CF0EF
:102AA000E3FA1CBD1CB5044608F098FE009008F03F
:102AB000B6FE0190032269464020FFF74FFD1CBD82
:102AC0001CB50446002000900120019001226946B7
:102AD00001A800F0E5FB9DF80000FFF795F91CBD8B
:102AE0007CB5054600200090012001900122694636
:102AF00001A800F0D5FB9DF80000012802D10CF0E0
:102B000026FE044621464220FFF7B0FB7CBD1CB5E3
:102B1000044600200090012001900122694601A88E
:102B200000F0BEFB9DF80000A24908701CBD1CB55A
:102B3000044600200090012001900122694601A86E
:102B400000F0AEFB9DF800104420FFF78FFB1CBD8A
:102B500070B50546002408F0EFFD044621465020DC
:102B6000FFF784FB70BD1FB50446012003900122CE
:102B700002A903A800F094FB0320039001226946F8
:102B800003A800F08DFBBDF80000C0B28DF8050071
:102B90000122694603A800F083FBBDF80000C0B223
:102BA0008DF804000122694603A800F079FBBDF806
:102BB0000000C0B28DF806009DF80810019808F0DA
:102BC000BDFD1FBD70B50546002402F071F8044636
:102BD00021465220FFF74AFB70BD3EB50446012056
:102BE0000290012201A902A800F05AFB03200290E2
:102BF0000122694602A800F053FBBDF9000000283D
:102C000001DA00200090BDF8001088B29DF8041091
:102C100009F0AFF93EBD38B5044603F0F7F900906E
:102C2000012269465420FFF799FC38BD10B586B0E3
:102C30000446684607F08EFC0098039001980490C3
:102C400002980590032203A95520FFF787FC06B0E0
:102C500010BD10B586B00446684607F084FC0098A5
:102C600003900198049002980590032203A955202F
:102C7000FFF774FC06B010BD3EB50446012002907B
:102C8000012201A902A800F00BFB9DF80410684680
:102C900009F0ABF8012269465620FFF75FFC3EBD04
:102CA0007FB50546002401200390012202A903A854
:102CB00000F0F6FA08F040FD9DF80810884200DAAE
:102CC0007FBD03200390002423E00122694603A86E
:102CD00000F0E6FABDF80000C0B28DF80500012250
:102CE000694603A800F0DCFABDF80000C0B28DF818
:102CF00004000122694603A800F0D2FABDF80000E2
:102D0000C0B28DF806002146019808F017FD601C3E
:102D1000C4B29DF808008442D7DB00BFD0E73EB5BF
:102D20000546002401200290012201A902A800F01A
:102D3000B7FA01F0BDFF9DF80410884200DA3EBDED
:102D400003200290002412E00122694602A800F04C
:102D5000A7FABDF90000002801DA00200090BDF8B4
:102D6000001088B2214609F004F9601CC4B29DF835
:102D700004008442E8DB00BFE1E73EB504460120E1
:102D80000290012201A902A800F08AFA0320029011
:102D90000122694602A800F083FABDF8001088B24B
:102DA0009DF8041001F086FF3EBD00009400002055
:102DB0000000A0419600002010B50246505C00F0D3
:102DC0007F00FE4C2070481C105CC007030E20469C
:102DD0000078184320702046007810BD30B50346B7
:102DE000585C00F07F00F64D2870481C185CC00746
:102DF000040E2846007820432870481C185C4008C0
:102E000068703AB9881C185C8007040E2846407820
:102E100020436870EA48B0F9000030BD10B50246A2
:102E2000505C00F07F00E74C2070481C105CC0072D
:102E3000030E2046007818432070481C105C4008A0
:102E40006070881C105C8007030E20464078184490
:102E50006070881C105C8008A070C81C105C400763
:102E6000030E204680781844A070C81C105CC0086F
:102E7000E070081D105C0007030E2046C07818445F
:102E8000E0702046006810BD10B50246505C00F0AE
:102E90007F00CC4C2070481C105CC007030E2046FD
:102EA000007818432070481C105C40086070881C33
:102EB000105C8007030E2046407818446070881C20
:102EC000105C8008A070C81C105C4007030E2046F0
:102ED00080781844A070C81C105CC008E070081D01
:102EE000105C0007030E2046C0781844E0702046AE
:102EF000006810BD18B500210091B04A107011464D
:102F0000097801F07F018DF800109DF80030AE4A7D
:102F100011884A1CAC4C2280AC4A5354A74909780A
:102F2000C9098DF801109DF80130224611884A1C0C
:102F30002280A64A535418BD38B50022009202B22E
:102F40009F4B1A801A46127802F07F028DF80020FB
:102F50009DF800409C4B1A88531C9B4D2B809B4B2B
:102F60009C54974A52785200954B1B7842EAE312E0
:102F700002F07F028DF801209DF801402B461A884F
:102F8000531C2B80914B9C5479B98D4A52789209ED
:102F90008DF802209DF802308C4A2C462488135567
:102FA0002A461288521C2B461A8038BD1CB50021B7
:102FB0000091019183490860097801F07F018DF843
:102FC00000109DF80030804A11884A1C7E4C2280F7
:102FD0007E4A53547B49497849007A4A127841EA3B
:102FE000E21101F07F018DF801109DF801302246B9
:102FF00011884A1C2280754A535472498978890085
:10300000704A527841EAA21101F07F018DF8021056
:103010009DF80230224611884A1C22806B4A535484
:103020006849C978C900674A927841EA621101F09B
:103030007F018DF803109DF80330224611884A1C49
:103040002280624A53545F49C97809098DF80410F7
:103050009DF80430224611884A1C22805B4A535452
:103060001CBD1CB5002100910191564908600978EA
:1030700001F07F018DF800109DF80030524A118850
:103080004A1C514C2280514A53544E4949784900B8
:103090004C4A127841EAE21101F07F018DF80110EB
:1030A0009DF80130224611884A1C2280474A535419
:1030B000444989788900434A527841EAA21101F0D3
:1030C0007F018DF802109DF80230224611884A1CBB
:1030D00022803E4A53543B49C978C900394A927804
:1030E00041EA621101F07F018DF803109DF8033071
:1030F000224611884A1C2280344A53543149C978E7
:1031000009098DF804109DF80430224611884A1CE4
:1031100022802E4A53541CBD70472D490968B1F5D1
:10312000805F15DA2B492C4A126888542A490968AD
:1031300040F6FF72914201D1002102E02649096860
:10314000491C254A116022490968491C204A11601E
:10315000704710B50446002320488078401C204961
:1031600008700846007810301E4909780844C3B238
:10317000F020FFF7D2FF1A480078FFF7CEFF1020AB
:10318000FFF7CBFF17480078FFF7C7FF1548007817
:10319000602807DD14480078FFF7BFFF1248007869
:1031A0001844C3B203F07F031846FFF7B6FFF720B9
:1031B000FFF7B3FF0A48007818E00000D6020020AD
:1031C000D4020020D0020020A8020020B421002058
:1031D00084020020B40C002094020020342100203E
:1031E000A4020020A5020020A602002000F20F1079
:1031F00000F07F03F020FFF78FFFFF20FFF78CFF29
:103200001020FFF789FFFB480078FFF785FF18467D
:10321000FFF782FFF720FFF77FFFF7480068401CA9
:10322000F549086010BD704710B50446F348807832
:10323000F349086008460068022806D10121EF48DA
:10324000801CFFF721FEEF49086010BD10B5044651
:10325000E84800781430C3B203F07F03F020FFF792
:103260005CFFE4480078FFF758FF1220FFF755FF96
:103270000220FFF752FF1846FFF74FFFF720FFF736
:103280004CFF10BD10B5044600BF4021DE4812F0CF
:1032900037FA0028F9D02146DB4812F0C3F910BDF7
:1032A00070B505460C461646012E66D1D748006813
:1032B000401ED7490988884203D10020D44908809C
:1032C00070BD2878072857D2DFE800F056040D1C9F
:1032D0002B3A4800CE490888411CCD4A1180C74985
:1032E000095C217048E0C549C94A12888818002144
:1032F000FFF762FD40B22070C5480088801CC449B9
:10330000088039E0BD49C24A12888818012200218C
:10331000FFF764FD2080BE480088801CBC490880FF
:103320002AE0B649BA4A1288881801220021FFF71C
:1033300055FD2080B6480088C01CB54908801BE0B8
:10334000AE49B34A128888180021FFF79DFD20601E
:10335000AF480088401DAE4908800DE0A749AC4A3F
:10336000128888180021FFF759FD2060A8480088BE
:10337000401DA749088000BF00BF002E6ED1A348A2
:103380000068801EA2490988884203D10020A04914
:10339000088095E79E490888411C9D4A11809749FD
:1033A000095C29702878072857D2DFE800F0560416
:1033B0000D1C2B3A480096490888411C944A1180FC
:1033C0008E49095C217048E08C49914A128888181E
:1033D0000021FFF7F1FC40B220708D480088801C6E
:1033E0008B49088039E08549894A1288881801226A
:1033F0000021FFF7F3FC208085480088801C844969
:1034000008802AE07D49824A12888818012200211A
:10341000FFF7E4FC20807E480088C01C7C490880BF
:103420001BE076497A4A128888180021FFF72CFDA4
:10343000206077480088401D754908800DE06F497D
:10344000734A128888180021FFF7E8FC2060704852
:103450000088401D6E49088000BF00BF01202FE793
:1034600030B5034600206A4C2080012A16D1204640
:103470000088401C20802088441C654D2C805F4CB7
:10348000245C1C701878602806DD2C462088441CBB
:103490002C805A4C245C0C70012030BD9AB95C4CD5
:1034A0002088441C5A4D2C80544C245C1C70187885
:1034B000602806DD2C462088441C2C804F4C245C60
:1034C0000C700120E9E70120E7E72DE9FF410746FD
:1034D00030260120039000BF0122694601A8FFF7B2
:1034E000BFFF00240DE0012202A903A8FFF7D8FEC8
:1034F0009DF80810601C814201D0002603E0601C8A
:10350000C4B2142CEFDB00BF3A48007814303044CA
:10351000C5B205F07F05F020FFF7B4FE354800780E
:10352000FFF7B0FE1420FFF7ADFE3046FFF7AAFE0E
:103530002846FFF7A7FEF720FFF7A4FEBDE8FF81AE
:1035400000B50346F020FFF7E8FD2A480078FFF7B2
:10355000E4FD1D20FFF7E1FD1846FFF7DEFDF72033
:10356000FFF7DBFD00BD70B500232A4C23802A4CF9
:103570002370012A08D11F4C2578264C23885C1C17
:10358000244E3480254CE554224C23885C1C214D6C
:103590002C80224CE054602805DD2C4623885C1CDE
:1035A0002C801E4CE15470BD30B504460023012C24
:1035B00043D100BF07E01948C05C174909780844A7
:1035C000154908705B1C134800888342F3DB1248DE
:1035D000007800F07F00104908700A780D490888CB
:1035E000411C0C4D29800D490A54F020FFF795FD30
:1035F00000231AE0A4020020B002002034210020A1
:10360000B402002070020020003801407C0200203B
:10361000AA020020A8020020A7020020B421002056
:10362000F749C85CFFF779FD5B1CF64800888342C8
:10363000F6DBF720FFF771FD11E084B9F120FFF709
:103640006BFD002304E0EE49C85CFFF765FD5B1CE1
:10365000EC4800888342F6DBF620FFF75DFD30BDC5
:103660002DE9F04F05460C461746012F31D1072DA5
:103670002ED2DFE805F02D040D131A212700227841
:10368000E0490888411CDF4B1980DD490A541FE0DE
:1036900094F900B05846FFF72DFC19E0B4F800B0DB
:1036A00001215846FFF748FC12E0B4F900B00021B0
:1036B0005846FFF741FC0BE0D4F800B05846FFF73E
:1036C000D0FC05E0D4F800B05846FFF76FFC00BF0F
:1036D00000BF002F6ED1042D3AD006DC012D0BD097
:1036E000022D19D0032D63D124E0052D3ED0062DE7
:1036F0004AD00F2D5CD155E00122C2490888411CF7
:10370000C04B1980BE490A54227819460888411CCA
:103710001980BB490A544CE00222BA490888411C6E
:10372000B84B1980B6490A5494F900804046FFF717
:10373000E1FB3EE00322B3490888411CB14B1980EC
:10374000AF490A54268801213046FFF7F5FB30E0E7
:103750000422AC490888411CAA4B1980A8490A5484
:10376000268800213046FFF7E7FB22E00522A54925
:103770000888411CA34B1980A1490A54D4F8009031
:103780004846FFF76EFC14E006229E490888411C5B
:103790009C4B19809A490A54D4F800A05046FFF770
:1037A00005FC06E0268801213046FFF7C5FB00E056
:1037B00000BF00BF93480088802804D100209149B1
:1037C0000880BDE8F08F0120FBE770B505460E4686
:1037D0001446012231462846FFF7C5FE0121204646
:1037E000FFF7AAFB0120FFF7DFFE70BD70B50546AD
:1037F0000E461446012231462846FFF7B4FE8149A1
:103800000888411C7F4A11807D490C540120FFF734
:10381000CBFE70BD10B57C480068811E01227B483C
:10382000FFF7DCFA0446204610BD30B503461C46BF
:10383000551A6C4340F6FF7594FBF5F4601830BDE3
:1038400030B503465C1AC4EB0434551A94FBF5F406
:1038500020B230BD70B505460E46144600223146F2
:103860002846FFF780FE032266490888411C654B05
:10387000198063490A5401212046FFF75DFB0121AD
:103880002046FFF759FB0020FFF78EFE70BDF0B514
:1038900005460E461446002231462846FFF763FED1
:1038A000012258490888411C564B198054490A5432
:1038B00019460888411C1A46118051490C540122AE
:1038C00000212046FFF7BCFF074601213846FFF7DD
:1038D00033FB0020FFF768FEF0BD002001E0411C33
:1038E000C8B2494909688842F9DB0021464A11609B
:1038F000704770B50025002045490870434800789E
:10390000FF2805D04148007842490978884238D1DB
:103910003E480078FF280BD13C484078102807D05B
:10392000F020FFF7F9FBFFF7D8FFF720FFF7F4FBD4
:1039300000241BE004EB4400374911F82000334910
:103940004978884210D1012504EB4400324901EB4B
:103950008000806838B104EB44000A4602EB800026
:1039600081680020884703E0601CC4B2052CE1D3C5
:1039700000BF75B92948006858B1284800688047D9
:1039800007E0F020FFF7C8FBFFF7A7FFF720FFF7DE
:10399000C3FB01201E49087070BD10B520480068A7
:1039A00010B11F480068804710BD70B5FF241D4846
:1039B000006886B2D4E01B48006886B21A481B49EA
:1039C0000968445C1A480078A0B3F72C05D10020A0
:1039D00017490870FFF78DFFB0E00C480A490968E5
:1039E000445409480068401C0749086008460068BC
:1039F0007F28F1DD00200E490870034908609DE032
:103A0000B4210020A80200207C02002034210020E4
:103A100075020020A4020020248D0108D802002095
:103A2000DC020020A0020020B41C00209C02002028
:103A300074020020FFE7F02C06D101209C49087099
:103A400000209C49086079E09B480078012843D118
:103A50009A4898490968445496480068401C95491A
:103A6000086008460068052868D10020924908705F
:103A7000904908609148007855285FD18F48407878
:103A800003285BD18D48C078012857D18B48007935
:103A9000002853D10025FF20FFF7F4FB5520FFF746
:103AA000F1FB86498878FFF7EDFB0420FFF7EAFB7E
:103AB0000920FFF7E7FB00BF05E08149485DFFF7FC
:103AC000E1FB681C05B2092DF7DB0D20FFF7DAFBDF
:103AD0000A20FFF7D7FB31E0FF2C06D10120764901
:103AE000087000207349086028E076480078D0B15B
:103AF000F62C05D1002073490870FFF74EFF1DE03A
:103B00006E486C49096844546A480068401C694919
:103B10000860084600687F2810DD002069490870A9
:103B2000644908600AE0F12C08D16748007828B998
:103B300001206449087000205E49086063480068FD
:103B400040F2FF11884201D1002002E05F48006886
:103B5000401C5E4908605E480068401E5C49086081
:103B60005A480068B0427FF426AF70BD70B5FF249C
:103B700000255848006886B24FE05648006886B273
:103B8000554856490968445C5548007838B155494C
:103B90000888411C534A118053490C540BE0F02C07
:103BA00009D101204E4908704E490888411C4D4AF0
:103BB00011804D490C54F72C1DD14A490888411CED
:103BC000484A118048490C540CE000BF4021474846
:103BD00011F096FD0028F9D04348415D434811F0AB
:103BE00021FD6D1C3F4800888542EEDB00203C49EA
:103BF00008703C4908803948006840F2FF1188424B
:103C000001D1002002E035480068401C33490860BB
:103C100037480068401E3649086030480068B042A6
:103C2000ABD170BD70B5FF243248006885B22EE07C
:103C30003048006885B2304830490968445CF02C4F
:103C400002D101202E49087000BF40212D4811F0FB
:103C500057FD0028F9D021462A4811F0E3FC2748F7
:103C6000006840F6FF71884201D1002002E023483D
:103C70000068401C2149086023480068401E224912
:103C80000860F72C03D100201D49087003E01B4891
:103C90000068A842CCD100BF70BD08B11B4A1060BB
:103CA00009B11B4A116070471A480068704700004C
:103CB000740200207C020020C20200203421002077
:103CC000B802002076020020A40200209C020020FE
:103CD000980200208C020020B41E002088020020E0
:103CE00078020020AC020020342200200044004072
:103CF0008002002094020020B40C002090020020DA
:103D0000770200200038014084020020D802002001
:103D1000DC020020B002002010B50020FE4908603F
:103D200009F01EFC0120FD4908700020FC490870C4
:103D3000FC4AFD49FD4809F037FBFA4AFA49FC48BC
:103D400009F032FBF74AF849FA4809F02DFB10BD9B
:103D5000F948C06870473EB5684606F0FBFB06F0C0
:103D60000EFC0546029912F02CF9044620463EBD91
:103D7000F14B10330ECB80E80E007047EF49096815
:103D80000160EF4909684160EE4909688160704748
:103D90000EB5684601F052FFE148007801280FD1C6
:103DA000E94AE248019909F04AFBE84AE0480099EB
:103DB00009F045FBE64ADF48029909F040FB08E0BC
:103DC000E14901980860E14900980860E0490298DB
:103DD00008600EBD2DE9F05FDE48006812F0B3FB0D
:103DE0008246DD4ADD4B12F05BFA06460F46DC48A0
:103DF000006812F0A8FB804632463B4612F0A9F953
:103E0000044612F0E3FBD6490860D64A084601682A
:103E1000D548006801F0C8FFD3490860084601682A
:103E2000CF48006812F01FF90446D04A2146D04816
:103E3000006801F0B9FFCE49086008460168C8482B
:103E4000006812F010F90446C7480168204612F0D5
:103E50000AF9C8490860C849C648006812F009F95B
:103E6000B6490860C548006812F06DFB0646BA4ABC
:103E7000BA4B12F015FA04460D46C148006812F01C
:103E800062FB804622462B4612F063F9824612F00E
:103E90009DFBBB490860B34A08460168B948006801
:103EA00001F082FFB749086008460168B44800681D
:103EB00012F0D9F80446AD4A2146B348006801F033
:103EC00073FFB149086008460168AD48006812F008
:103ED000CAF80446AB480168204612F0C4F8AB4962
:103EE00008600846006880F00044A349204612F0AC
:103EF000C0F893490860BDE8F09F2DE9FE4F684681
:103F000006F054FAA248006812F01DFB8246924A5D
:103F1000924B12F0C5F906460F469E48006812F013
:103F200012FB804632463B4612F013F9044612F06B
:103F30004DFB984908600846006812F004FB0646ED
:103F4000854A864B12F0ACF904460D46924800684B
:103F500012F0F9FA804622462B4612F0FAF8824611
:103F600012F034FB8C4908607E4A8A4801688B480D
:103F7000006801F019FF8949086008460168854812
:103F8000006812F070F80446784A214684480068B8
:103F900001F00AFF82490860BDE8FE8F2DE9F04F6D
:103FA00087B082460C4615467E480068401C7D4915
:103FB00008607D487D4AD0F808117D48006801F00E
:103FC000F3FE814649467B48006811F0FAFF7949C3
:103FD0000860744800684FF4FA61B0FBF1F201FB2D
:103FE000120048B974497348006812F074F87349B4
:103FF000086000206F4908606D480168484612F06B
:1040000032F8834659466E48006811F0DAFF6C4971
:10401000086000202870634800680521B0FBF1F2B9
:1040200001FB1200002842D16548006812F08BFAAB
:10403000644A654BCDE9040112F0A4F9074612F079
:10404000C5FA0646614A31466148006801F0ACFE97
:104050000646304612F077FA074600225D4B12F012
:1040600091F9CDE9040112F0B1FA206058480660D8
:10407000206812F068FA0746524A534B12F010F9C2
:10408000CDE902015448006812F05DFACDE9000163
:10409000DDE9022312F05DF8CDE9040112F096FA91
:1040A0004D490860012028700020454908604348B8
:1040B0000168484611F0D7FFCAF800003C48C0F834
:1040C000009007B0BDE8F08F2DE9FE4F06F032FA00
:1040D000044601F09BFF81464946204611F0C3FF8C
:1040E0008346002112F098FA04D24946204611F086
:1040F000BAFF05E04946204611F0B5FF80F00040C8
:10410000824612F020FA07462E4A344B12F046FA45
:1041100066D206F005F964E04C030020200300207D
:104120003403002000004843CDCC4C3DD822002071
:104130000023002028230020B822002008030020AC
:104140001C030020F4020020280300202C03002080
:1041500030030020AC0300207B14AE47E17A743FAB
:10416000F80200200AD7233C000300200AD7A33B13
:10417000FC0200200403002000004040B0030020A7
:104180000C0300201403002010030020180300205B
:10419000B4030020E4020020EC020020F002002022
:1041A000E8020020380300207C070020CDCCCC3D65
:1041B00044030020680300200000FA446C03002040
:1041C0003C0300209A9999999999A93FCDCC4C3EEE
:1041D000480300200000F83F640300209999C93F7C
:1041E0003BE00546012D3ED1684601F022FD00214D
:1041F000019812F011FA01D2019802E0019880F0C2
:1042000000400746C14912F0FDF92CD20021009868
:1042100012F002FA01D2009802E0009880F000400B
:104220000746BA4912F0EEF91DD201F0E5FF074644
:10423000B74912F0F1F911D2484612F084F9074655
:10424000B44AB54B12F092F908D22146484611F013
:104250000AFF0646304606F08FF904E084F0004677
:10426000304606F089F9BDE8FE8F2DE9F04F8DB09C
:10427000AA480068401CA949086008460068052152
:10428000B0FBF1F201FB120008B9FFF71DFF01F0CE
:10429000BDFEA349086009AA0AA90BA8FFF77EFE84
:1042A0009DF8240001281BD19E490A9808604FF010
:1042B0007E519C48006812F0AFF904D24FF07E5056
:1042C000984908600CE09748006812F03CF90746EE
:1042D0000022954B12F04AF902D2944891490860A5
:1042E00005F0FFFF0546022D45D191498C48006835
:1042F00012F092F903D206F021F904463EE0884814
:1043000001688B4811F0AFFE0746894911F0E3FEC2
:104310008146484612F017F982468B4601F06CFF41
:10432000019012F010F907460022824B12F02AF891
:1043300052465B46CDE9020111F0B2FFCDE904011E
:1043400012F044F9814606F0F9F8824649464FF0EA
:104350007E5011F088FE8346514611F08AFE0746D2
:104360006F480168484611F084FE8046394611F0D6
:1043700028FE044602E006F0E1F8044606A809F02B
:10438000C2FA6D49069811F0A6FE6C4908616A49A7
:10439000079811F0A0FE69494861694801686948B9
:1043A000006811F060FE074667480168384611F062
:1043B0005AFE664908605B48006812F0C4F8074678
:1043C000634A644B11F06CFF82468B465F4800687D
:1043D00012F0B9F807464FF033325F4B11F060FF2F
:1043E00052465B46CDE9000111F0B3FE00224FF0CA
:1043F0008043CDE9020111F053FFCDE9040112F031
:10440000E5F80646554A4FF07F51304608F0B6FFB2
:1044100006464A4886614D48006812F094F8824684
:104420004F4A504B11F03CFFCDE90201204612F0FB
:104430008AF80746DDE9022311F08BFECDE904017D
:1044400012F0C4F804463D49474AC868214601F0C5
:10445000ABFC3A49C8600DB0BDE8F08F2BE0434893
:104460000068401C4149086001F0CBFB40480078DF
:10447000F0B900BF0BF060F93C48007800F0010093
:1044800008B9FFF7F2FEFFF738FD3A480078012837
:1044900001D1FFF79FFCFFF77BFC3448007800F068
:1044A000030028B905F000FB022801D009F0D8F874
:1044B00005200EF005FAD2E72F480068704710B1CA
:1044C0002E4B1B68036011B12D4B1B680B600AB1AA
:1044D0000023136070472B49096801602A49096865
:1044E00041601649C9688160704722490870704769
:1044F00026490870704726490968416025490968BE
:104500000160254909688160704700000000704122
:1045100000007042CDCCCCCCCCCCFC3F240300209E
:104520005003002040030020000004C0000020C011
:104530000000A040000059400000C842B8220020FE
:10454000E8020020E4020020F0020020F402002033
:104550009A9999999999D93F3333E33F0000C0BFA5
:104560007B14AE47E17A943FA4707D3FE0020020C7
:10457000FC030020200300204C03002054030020F3
:10458000580300205C030020600300203403002057
:10459000280300202C030020300300202DE9FF41D8
:1045A00004460D4617461021DF480FF0FAFBBB20EA
:1045B0000BF0A3FB002606E0FF200BF09EFB0DF89E
:1045C0000600701CC6B20E2EF6DB9DF801109DF899
:1045D000002041EA022108B211F043FF20609DF85B
:1045E00003109DF8022041EA022108B211F039FFC0
:1045F00060609DF805109DF8042041EA022108B290
:1046000011F02FFFA0609DF809109DF8082041EAE5
:10461000022108B211F025FF28609DF80B109DF8CB
:104620000A2041EA022108B211F01BFF68609DF8E0
:104630000D109DF80C2041EA022108B211F011FF83
:10464000A8609DF807109DF8062041EA022108B2F3
:1046500011F007FF38601021B3480FF0A0FBBDE850
:10466000FF812DE9F04706460C4615462A462146AD
:104670003046FFF793FFAD4A1168206811F0F3FC54
:104680002060AA4A5168606811F0EDFC6060A74A9A
:104690009168A06811F0E7FCA060A548296811F0B6
:1046A00090FC8146A34911F0E4FC8046A24911F038
:1046B00012FD0746A14911F084FC2860A049286832
:1046C00011F009FD2860BDE8F08770B505460C467D
:1046D000102195480FF065FB28460BF00EFB0646AF
:1046E00020460BF00AFB10218F480FF058FB304694
:1046F00070BD70B5044610218B480FF052FB44F09A
:1047000080000BF0FAFAFF200BF0F7FA05461021B3
:1047100085480FF044FB284670BD10B50BF09EFA9B
:104720007520FFF7E6FF702829D180216B20FFF765
:10473000CCFF642000F0FFFA07216820FFF7C5FFD7
:10474000642000F0F8FA01216B20FFF7BEFF002182
:104750006C20FFF7BAFF02211A20FFF7B6FF0021F5
:104760001920FFF7B2FF18211B20FFF7AEFF102121
:104770001C20FFF7AAFF00211D20FFF7A6FF6B4AB0
:104780000832111F081F07F083F910BD70B58EB0F5
:1047900004460025002005900690079002900390A3
:1047A0000490254629E001AA08A90BA8FFF7F6FE08
:1047B0000B99059811F005FC05900C99069811F0DD
:1047C00000FC06904FF08B410D9811F04CFC064612
:1047D000079911F0F6FB07900899029811F0F1FB88
:1047E00002900999039811F0ECFB03900A99049840
:1047F00011F0E7FB0490681E85B2002DD3DC204643
:1048000011F038FE06463146059811F064FC4D491A
:104810000860204611F02EFE06463146069811F03B
:104820005AFC48494860204611F024FE06463146AD
:10483000079811F050FC43498860204611F01AFE99
:1048400006463146029811F046FC38490860204679
:1048500011F010FE06463146039811F03CFC334936
:104860004860204611F006FE06463146049811F0D5
:1048700032FC2E4988600B469A685968186807F020
:10488000F5F80EB070BD70B504460D4616462748C3
:1048900004604560866003469A685968186807F0A6
:1048A000E5F870BD274B0ECB80E80E0070472DE970
:1048B000F04180460D4616461F4610211A480FF05B
:1048C00070FA45F080000BF018FA002405E0FF2094
:1048D0000BF013FA3855601CC4B2B442F7DB102158
:1048E00011480FF05CFA0020BDE8F0812DE9F0419D
:1048F00080460D4616461F4610210B480FF051FA10
:1049000028460BF0FAF9002404E0385D0BF0F5F9C5
:10491000601CC4B2B442F8DB102103480FF03FFA28
:104920000020BDE8F0810000000801405C23002069
:10493000004002440000C8420000084200B8084796
:1049400000007A44502300200620EA49087070478E
:1049500010B5044624B1012C05D0022C05D103E08A
:10496000FFF7F2FF01E000E000BF00BF10BD10B58F
:104970000620E04908700120DF49088008460088C9
:104980004FF47A714843DD4908800020FFF7E0FFCB
:104990000CF084FC10BD10B5002400BF1DE0D84809
:1049A00030F91400B0F5FA6F05DD4FF4FA60D44920
:1049B00021F8140008E0D24830F91400002803DA86
:1049C0000020CF4921F81400CD4830F8140081B2FE
:1049D00020460CF00FFB601CC4B2C648007884422D
:1049E000DDDB10BD2DE9F05F05460F461646C548D4
:1049F00090F81A0101287DD1C048008811F03AFDD5
:104A00008346394611F0DDFA8246294611F02BFB28
:104A10008146314611F027FB804611F04EFD00B271
:104A2000B7490880B548008811F024FD8246394610
:104A300011F0C7FA8146314611F0C3FA804611F0F1
:104A40003CFD00B2AE494880AC48008811F012FD30
:104A50008346394611F0B5FA8246294611F0B1FA7B
:104A60008146314611F0FFFA804611F026FD00B272
:104A7000A3498880A148008811F0FCFC8346394690
:104A800011F0F1FA8246294611F09BFA814631462F
:104A900011F097FA804611F010FD00B29849C880D5
:104AA0009648008811F0E6FC8246394611F0DBFAA0
:104AB0008146314611F0D7FA804611F0FEFC00B273
:104AC0008F4908818D48008811F0D4FC834639460F
:104AD00011F0C9FA8246294611F0C5FA81463146DD
:104AE00011F06FFA804611F0E8FC00B28449488169
:104AF0000CE0FFE7002405E00020814921F81400C4
:104B0000601CC4B27B4800788442F5DBFFF743FFAA
:104B1000BDE8F09F70B506460D467A4890F81A0138
:104B200001280CD1002407E036F8140000B27449C3
:104B300021F81400601CC4B2AC42F5DB09E000248B
:104B400005E000206E4921F81400601CC4B2AC429C
:104B5000F7DBFFF720FF70BD10B50CF06AFB10BD4E
:104B6000B0F5FA6F05DA644909884143634A118058
:104B700006E0614909884FF4FA6251435F4A1180A7
:104B8000704710B55D4800885B49098890FBF1F4D7
:104B9000204611F066FC10BD70B50446204611F0A9
:104BA000D2FC0546584A594B11F0E0FC01D2584C52
:104BB0000DE04FF07E51204611F02EFD02D24FF055
:104BC0007E5404E0204611F091FC4B49088070BDF2
:104BD00010B54948008811F04DFC10BD10B549488A
:104BE000B0F81811B0F8B80001444648B0F8DC003D
:104BF000091A4448B0F80001081A00B24049088078
:104C00004048B0F81811B0F8B80001443D48B0F879
:104C10000001084400B23A4948803A48B0F81811F7
:104C2000B0F8B80001443748B0F8DC00014435481A
:104C3000B0F80001081A00B2314988803148B0F854
:104C40001811B0F8B800091A2E48B0F8DC00014479
:104C50002C48B0F80001084400B22949C88029480E
:104C6000B0F81811B0F8B800091A2648B0F80001D9
:104C7000081A00B2224908812248B0F81811B0F889
:104C8000B800091A1F48B0F8DC00091A1D48B0F82E
:104C90000001084400B21A4948811A4890F81A01E4
:104CA000012802D1FFF777FE01E00CF0C2FA10BD37
:104CB0000620704770B504460D46B4F5FA6F01DD65
:104CC0004FF4FA64214628460CF04BFA70BD10B53B
:104CD0000A4801880F4800780CF08CF90D480078DC
:104CE000401C0C49087008460078062801DB0020AB
:104CF000087010BD700300207403002072030020B0
:104D0000682300207C0700209A9999999999B93FC6
:104D1000CDCCCC3D76030020002106E00B2100BF66
:104D20000A00A1F1010399B2FAD10200A0F1010336
:104D300098B2F3D17047002107E042F6E06100BF6E
:104D40000A00A1F1010399B2FAD10200A0F1010316
:104D500098B2F2D1704730B5184800684FF47A72B3
:104D6000B0FBF2F1B1F1807F01D301201DE021F011
:104D70007F40401E4FF0E022506150170F22002864
:104D800007DA13071D0E0E4B00F00F04241F1D55EC
:104D900003E013071C0E0B4B1C5400BF00204FF008
:104DA000E022906107201061002008B100BFFEE7FB
:104DB00030BD10B50DF0A3FF10BD0000540700205A
:104DC00018ED00E000E400E010B5002410E0002041
:104DD00004EB4401FE4A22F8110004EB440102EB0B
:104DE0004101488004EB440102EB41018880641CCE
:104DF000142CECDB4FF07E50F64908600020F64999
:104E00000860F6490860F64908604FF07E50F549A1
:104E100008600020F4490860F4490860F44908601B
:104E2000F449C1F898000021F248C0F8BC10C0F85D
:104E3000E01005F0B7FA0020EF490860EF4908607C
:104E4000EF490860EF490860EF49086010BD07B5F9
:104E5000B4B03498ED490B9011F00BF932903598BD
:104E6000EA490B9011F005F931903698E7490B901B
:104E700011F0FFF83090E648B0F900000B9011F007
:104E8000F0FA2F90E248B0F902000B9011F0E9FA25
:104E90002E90DF48B0F904000B9011F0E2FA2D904B
:104EA000CC480168006811F0E4F82C90CA48016809
:104EB000C848006811F0DDF82B90C8480168C54863
:104EC000006811F0D6F82A90C5480168C14800680A
:104ED00011F0CFF82990C0480168006811F0C9F8B6
:104EE0002890BE480168BC48006811F0C2F82790BD
:104EF000BB480168B848006811F0BBF82690B74875
:104F00000168006811F0B5F82590B5480168B3480C
:104F1000006811F0AEF82490B1480168006811F003
:104F2000A8F82390AF480168006811F0A2F81C901F
:104F3000AD480168006811F09CF81B90AB4801680F
:104F4000006811F096F81A90A9480168006811F0FD
:104F500090F81990A5480168A348006811F089F8F5
:104F60001890A34801689F48006811F082F81790D4
:104F70009F483099006811F07CF809909B4831995E
:104F8000006811F076F807909748006880F00040BC
:104F90000590329911F06DF80690079911F063F8B9
:104FA0000890099911F05FF89A490A9011F061F898
:104FB0000B908C4801680B9811F003F88949086040
:104FC0008B483199006811F054F80990874830995E
:104FD000006811F04EF8079082483299006811F08D
:104FE00048F80690079910F0ECFF0890099911F025
:104FF0003AF888490A9011F03CF80B907A48016819
:105000000B9810F0DEFF7849086079483299006803
:1050100011F02FF8099074483099006811F029F8C0
:10502000079070483199006811F023F806900799AD
:1050300011F019F80890099910F0C3FF75490A900A
:1050400011F017F80B90694801680B9810F0B9FF40
:105050006649086065483299006811F00AF80990BD
:1050600061483199006811F004F807905D48309963
:10507000006810F0FEFF0690079910F0A2FF08905C
:10508000099910F0F0FF63490A9010F0F2FF0B90BD
:10509000574801680B9810F094FF55490860DDE906
:1050A0001B1010F08EFF05901A9910F08AFF0690E1
:1050B000199910F086FF079011F045FACDE9080123
:1050C00013F00AFECDE90A0111F080FA3390454849
:1050D0003399006810F0FFFF424908604248339955
:1050E000006810F0F8FF40490860404833990068B4
:1050F00010F0F1FF3D4908603D483399006810F019
:10510000EAFF3B490860DDE92E1010F0B2FF0A907B
:105110002D9910F0AEFF00210B9011F073FA01D120
:1051200037B000BD2D99084610F0A3FF06902E99C8
:10513000084610F09EFF04902F99084610F099FF42
:105140000390049910F03DFF0590069910F039FF87
:10515000079011F0F8F9CDE9080113F0BDFDCDE994
:105160000A0111F033FA339033992F9810F0B3FFFE
:105170002F9033992E9810F0AEFF2E9033992D98E2
:1051800010F0A9FF2D902A99269810F06CFF4FF08F
:1051900080410B9010F06DFF229024992B9810F015
:1051A00010FF4FF080410B9010F063FF2190289981
:1051B0002C9810F058FF0A90259910F054FF0B908E
:1051C000239910F0FEFE209021992D9824E00000F4
:1051D000782300208C0300209003002094030020FB
:1051E000980300209C030020A0030020A4030020BB
:1051F000A80300207C070020B8030020BC03002087
:10520000C4030020C8030020CC03002089A18B3AEE
:10521000780300200AD7233B10F02BFF0B90209936
:105220002E9810F026FF0A900B9910F01CFF1F908B
:1052300020992F9810F01DFF0B9022992D9810F0B7
:1052400018FF0A900B9910F00EFF1E9022992E98CD
:1052500010F00FFF0B9021992F9810F00AFF0A9081
:105260000B9910F000FF1D90FE491F9810F001FFF0
:105270000B90FD4801680B9810F0A3FEFA490860F6
:10528000F8491E9810F0F5FE0B90F84801680B984D
:1052900010F097FEF5490860F2491D9810F0E9FEFC
:1052A0000B90F34801680B9810F08BFEF0490860F2
:1052B0004FF080401F9910F0DCFE0A90329910F0F8
:1052C00080FE0B90E84801680B9810F07AFE32904F
:1052D0004FF080401E9910F0CCFE0A90319910F0EA
:1052E00070FE0B90E14801680B9810F06AFE319057
:1052F0004FF080401D9910F0BCFE0A90309910F0DC
:1053000060FE0B90DA4801680B9810F05AFE30905E
:10531000D8483099006810F0ACFE0990D648319911
:10532000006810F0A6FE0790D448006880F00040A6
:105330000590329910F09DFE0690079910F093FEAB
:105340000890099910F08FFECD490A9010F091FE57
:105350000B90CC4801680B9810F033FEC9490860E7
:10536000C4483199006810F084FE0990C248309911
:10537000006810F07EFE0790C2483299006810F075
:1053800078FE0690079910F01CFE0890099910F01D
:105390006AFEBB490A9010F06CFE0B90B74801689A
:1053A0000B9810F00EFEB5490860B24832990068BB
:1053B00010F05FFE0990B1483099006810F059FE76
:1053C0000790B0483199006810F053FE0690079995
:1053D00010F049FE0890099910F0F3FDA8490A90D1
:1053E00010F047FE0B90A44801680B9810F0E9FDFF
:1053F000A1490860A0483299006810F03AFE09906F
:105400009E483199006810F034FE07909D4830990D
:10541000006810F02EFE0690079910F0D2FD08905B
:10542000099910F020FE96490A9010F022FE0B9088
:10543000904801680B9810F0C4FD8E4908602899C7
:105440002C9810F0BEFD0590259910F0BAFD06903D
:10545000239910F0B6FD079011F075F8CDE9080119
:1054600013F03AFCCDE90A0111F0B0F83390854809
:105470003399006810F02FFE824908607F48339905
:10548000006810F028FE7D4908607B483399006869
:1054900010F021FE7849086076483399006810F0D2
:1054A0001AFE7449086028992C9810F08AFD0A9019
:1054B000259910F0D8FD0B90239910F0D4FD724976
:1054C00008602999279810F07CFD079011F03BF8AF
:1054D00000224FF08043CDE9080110F0E1FECDE954
:1054E0000A0111F073F8684948602A99269810F06B
:1054F000BAFD079011F027F800224FF08043CDE964
:10550000080110F0CDFECDE90A0111F05FF85E4907
:1055100088602999279810F0A6FD079011F013F8DC
:1055200000224FF08043CDE9080110F0B9FECDE92B
:105530000A0111F04BF85449C86028992C9810F0D2
:1055400092FD0A90259910F03CFD0B90239910F0E4
:105550008AFD4D4908612B99249810F032FD07907F
:1055600010F0F1FF00224FF08043CDE9080110F068
:1055700097FECDE90A0111F029F8434948612A99BB
:10558000269810F01EFD079010F0DDFF00224FF06E
:105590008043CDE9080110F083FECDE90A0111F046
:1055A00015F8394988612B99249810F05CFD079013
:1055B00010F0C9FF00224FF08043CDE9080110F040
:1055C0006FFECDE90A0111F001F82F49C861289951
:1055D0002C9810F048FD0A90259910F044FD0B908E
:1055E000239910F0EEFC284908620CA804F08AFF09
:1055F0002648B0F90000039010F033FF04900C9897
:1056000001460390049810F02EFD059010F09BFFCA
:1056100000221F4BCDE9060110F0B4FE4FF080428E
:105620001C4BCDE9080110F03BFECDE90A0110F05A
:10563000CDFF14901548B0F90200039010F011FF4F
:1056400004900D9801460390049810F00CFD05900D
:1056500010F079FF00220E4BCDE9060110F092FE0A
:105660001AE000006F12833A8003002084030020B8
:10567000880300209803002094030020900300205A
:105680000AD7233B8C030020F0230020780300205E
:105690000000B040019D23404FF08042FE4BCDE919
:1056A000080110F0FDFDCDE90A0110F08FFF159003
:1056B000FA48B0F90400039010F0D3FE04900E985D
:1056C00001460390049810F0CEFC059010F03BFFCB
:1056D0000022F34BCDE9060110F054FE4FF080425A
:1056E000ED4BCDE9080110F0DBFDCDE90A0110F02A
:1056F0006DFF16900020109033E0002111AA109841
:1057000042F8201000200F9024E00F9800EB40009A
:10571000E44901EB8001109851F8200014A9099088
:105720000F9851F8200001460A90099810F0A1FC4A
:1057300011A90B90109851F8200001460A900B987F
:1057400010F03FFC11AA109942F821000F98401C5C
:10575000C0B20F900F980328D7DB1098401CC0B23E
:10576000109010980328C8DB139880F00040139025
:105770001398CD490A9010F024FC0B90CB48806818
:1057800001460A900B9810F06EFCC94988600846E3
:105790008068C849029010F06CFC039010F0D3FEB2
:1057A000C54AC64BCDE9040110F07AFDCDE90801E8
:1057B000BE488068059010F0C6FECDE90601DDE91F
:1057C000082310F0C6FCCDE90A0110F0FFFEB7492E
:1057D00088600846806880F00040B9490860B94890
:1057E0004068019010F0AFFE0022B74BCDE90201F6
:1057F00010F0C8FD0022B54BCDE9040110F050FDBA
:10580000CDE908011498059010F09DFECDE9060140
:10581000DDE9082310F03EFDCDE90A0110F0D6FEC7
:10582000AB490860A7480068019010F08CFE002288
:10583000A54BCDE9020110F0A5FD0022A34BCDE957
:10584000040110F02DFDCDE908011598059010F028
:105850007AFECDE90601DDE9082310F07AFCCDE9F6
:105860000A0110F0B3FE9B4908604FF080402A996E
:1058700010F0FFFB04904FF04040269910F0F9FB28
:105880000390049910F09DFB059010F05CFECDE9AB
:10589000060112F04DF881F000414FF0C0428E4BEE
:1058A000CDE9080110F0FCFCCDE90A0110F08EFEF4
:1058B000844948604FF08040259910F0DAFB019050
:1058C0004FF04040289910F0D4FB0090019910F05F
:1058D000CAFB4FF07E51029010F073FB039010F062
:1058E00032FECDE906014FF080402B9910F0C1FB4C
:1058F00002904FF08040249910F0BBFB0190029978
:1059000010F05FFB039010F01EFECDE90401DDE90D
:10591000062312F055FA81F000414FF0C0426E4B61
:10592000CDE9080110F0BCFCCDE90A0110F04EFEF3
:10593000644908604FF08040199910F09AFB01907B
:105940004FF040401A9910F094FB0090019910F02C
:105950008AFB4FF07E51029010F033FB039010F061
:10596000F2FDCDE906014FF08040179910F081FB60
:1059700002904FF08040189910F07BFB0190029943
:1059800010F01FFB039010F0DEFDCDE90401DDE90E
:10599000062312F015FA4FF0C0424F4BCDE9080133
:1059A00010F07EFCCDE90A0110F010FE4549886038
:1059B000084640680B90494801680B9810F053FB6B
:1059C00040494860084600680B90454801680B98BC
:1059D00010F049FB3B490860084680680B9041483D
:1059E00001680B9810F03FFB3649886000BFFFF755
:1059F00097BB2DE9F743019880F00044204610F052
:105A0000A2FD0546384A394B10F04AFC074610F013
:105A1000DDFD2C490861009880F00044204610F01C
:105A200092FD0546304A314B10F03AFC074610F023
:105A3000CDFD2449C860029880F00044204610F053
:105A400082FD0546284A294B10F02AFC074610F033
:105A5000BDFD1C4948614869254910F03CFB0446DE
:105A600024480168204610F0ACFA22490860154924
:105A700008691F4910F02FFB04461F4801682046A3
:105A800010F09FFA1C4908600E49C868184910F0C8
:105A900022FB0446194833E0019D2340780300208F
:105AA0000000B040F02300200AE81C41142400202C
:105AB000202400200000A0417B14AE47E17A743F0F
:105AC000B40300202C240020008056400000304009
:105AD000AC030020B003002066A64C40C4030020A5
