:100000000C9445020C946D020C946D020C946D02DC
:100010000C946D020C946D020C946D020C942D09DD
:100020000C946D020C946D020C946D020C94FB0701
:100030000C946D020C946D020C946D020C946D0284
:100040000C94D2060C946D020C942A050C940405B1
:100050000C946D020C946D020C946D020C946D0264
:100060000C94E3090C946D0292215C1C091DB61DD1
:10007000B61DCB1D5F21B61DE921E921E921E9214A
:10008000E921F81D0F1E471EE9215C1E3C1EE921D7
:10009000E921861ED52148200F213221D31EE921D6
:1000A000E921E9219E21A621E921E921E921B91EC1
:1000B000E921E921E921E921E921E921E921E921F0
:1000C000E921E921E921E921E921E921BA21C52133
:1000D000084AD73B3BCE016E84BCBFFDC12F3D6CAF
:1000E00074319ABD56833DDA3D00C77F11BED9E415
:1000F000BB4C3E916BAAAABE000000803F07634242
:1001000036B79BD8A71A39685618AEBAAB558C1DAE
:100110003CB7CC5763BD6DEDFD753EF6177231BF30
:10012000000000803F08000000BE922449123EAB50
:10013000AAAA2ABECDCCCC4C3E00000080BEABAA01
:10014000AAAA3E00000000BF000000803F0000009F
:100150000000084178D3BB4387D1133D190E3CC33F
:10016000BD4282AD2B3E68EC8276BED98FE1A93EBE
:100170004C80EFFFBE01C4FF7F3F00000000000085
:10018000000000002300260029000E000F001000D0
:1001900011001200130014001500200000000000E0
:1001A0000030007C82827C00310042FE020000327E
:1001B00000468A92620033004492926C0034001C24
:1001C00064FE04003500F292928C0036007C92921C
:1001D0004C003700C08E90E00038006C92926C00AA
:1001E00039006492927C006100042A2A1E00620099
:1001F000FE12120C0063000C1212120064000C12AA
:1002000012FE0065001C2A2A18006600103E50509D
:100210000067000815151E006800FE101E0000692A
:1002200000002E0000006A0002012E00006B00FE9C
:10023000081412006C0000FE0200006D001E100E7B
:10024000100E6E001E10100E006F000C12120C002B
:1002500070001F12120C0071000C12121F007200AD
:100260001E08101000730012292512007400103EA1
:1002700012000075001C02021E0076180402041809
:10028000007718061C0618007800120C0C12007972
:10029000001805051E007A0012161A120041007E91
:1002A00088887E004200FE92926C0043007C82822D
:1002B00044004400FE82827C004500FE929282004F
:1002C0004600FE9090800047007C82925C004800CF
:1002D000FE1010FE00490082FE8200004A000C025F
:1002E00002FC004B00FE1028C6004C00FE02020279
:1002F000004D00FE403040FE4E00FE403008FE4FF4
:10030000007C8282827C5000FE9090600051007CD4
:10031000828A847A5200FE9894620053006492921A
:100320004C00540080FE8080005500FC0202FC005E
:100330005600F00C020CF05700FE043804FE580082
:10034000C63838C60059C0201E20C0005A00869A00
:10035000B2C2002C00010E0C00002E0000060600A8
:1003600000257254781E2A4E2100007A0000003FBA
:1003700000204A3000002D0010101010002B08083B
:100380003E0808002F00020C3040002A22140814F6
:1003900022003A0000140000002200C000C000004B
:1003A0002328FE28FE28002800007C820000290067
:1003B00000827C00003B0002240000007E004080A0
:1003C0004080003B0002240000003D00282828282F
:1003D000007C0000FE0000003E0082442810003C2B
:1003E000001028448200400000000000007C447C93
:1003F000007C005C547454547C70107C74545C7C9D
:10040000545C40407C7C547C74547C00040020206C
:100410002000000000000000240027002A00000047
:1004200000080002010000030407000000000000B3
:1004300000003F065B4F666D7D077F6F777C395EFE
:100440007971BF86DBCFE6EDFD87FFEFF7FCB9DE04
:10045000F9F1004000000000250028002B000404F2
:10046000040404040404020202020202030303035C
:100470000303010204081020408001020408102038
:10048000010204081020922A722A11241FBECFEF05
:10049000D8E0DEBFCDBF11E0A0E0B1E0EAEAF8E6C7
:1004A00002C005900D92A83BB107D9F726E0A8EB52
:1004B000B1E001C01D92A93DB207E1F712E0C4E42A
:1004C000D2E004C02197FE010E94742CC334D107EE
:1004D000C9F70E9441180C9448340C940000CF9244
:1004E000DF92EF92FF920F931F93CF93DF936C01F4
:1004F0007A018B01C0E0D0E0CE15DF0589F0D8018C
:100500006D918D01D601ED91FC910190F081E02D6E
:10051000C6010995892B11F47E0102C02196ECCF0A
:10052000C701DF91CF911F910F91FF90EF90DF9066
:10053000CF900895FC01918D828D981761F0828D86
:10054000DF01A80FB11D5D968C91928D9F5F9F7307
:10055000928F90E008958FEF9FEF0895FC01918DA9
:10056000828D981731F0828DE80FF11D858D90E016
:1005700008958FEF9FEF0895FC01918D228D892FB3
:1005800090E0805C9F4F821B91098F73992708959B
:1005900087E193E00E94BC0221E0892B09F420E06E
:1005A000822F0895FC01848DDF01A80FB11DA35A8D
:1005B000BF4F2C91848D90E001968F739927848F83
:1005C000A689B7892C93A089B1898C9180648C937A
:1005D000938D848D981306C00288F389E02D808165
:1005E0008F7D80830895EF92FF920F931F93CF9397
:1005F000DF93EC0181E0888F9B8D8C8D981305C073
:10060000E889F989808185FD24C0F62E0B8D10E0E4
:100610000F5F1F4F0F731127E02E8C8DE8120CC057
:100620000FB607FCFACFE889F989808185FFF5CFFD
:10063000CE010E94D202F1CF8B8DFE01E80FF11D99
:10064000E35AFF4FF0820B8FEA89FB898081806239
:1006500007C0EE89FF896083E889F9898081806419
:10066000808381E090E0DF91CF911F910F91FF9007
:10067000EF900895CF93DF93EC01888D8823C9F024
:10068000EA89FB89808185FD05C0A889B9898C919B
:1006900086FD0FC00FB607FCF5CF808185FFF2CF36
:1006A000A889B9898C9185FFEDCFCE010E94D20235
:1006B000E7CFDF91CF91089580E090E0892B29F07A
:1006C0000E94C80281110C9400000895833081F0CB
:1006D00028F4813099F08230A1F008958730A9F094
:1006E0008830B9F08430D1F4809180008F7D03C0D0
:1006F000809180008F7780938000089584B58F77F4
:1007000002C084B58F7D84BD08958091B0008F773D
:1007100003C08091B0008F7D8093B000089585ED77
:100720008093BC008091BC0084FDFCCF1092160326
:10073000089540917702262F30E0240F311D213299
:100740003105DCF4209116032430C9F4FC0180E06B
:1007500090E0861758F4309177022191DC01AB5A72
:10076000BD4FA30FB11D2C930196F3CF809177025B
:10077000680F6093770280E0089581E0089582E039
:1007800008950895E091A6028091A702E81730F439
:10079000F0E0E053FD4F808190E008958FEF9FEFF0
:1007A00008959091A6028091A702981750F4E92F1E
:1007B000F0E0E053FD4F208130E09F5F9093A60270
:1007C00002C02FEF3FEFC90108958091A70290E08A
:1007D0002091A602821B91090895CF92DF92EF9299
:1007E000FF920F931F93CF93DF937C01262F972FB8
:1007F0008A018091AC02882391F0C62FD72F6E0119
:10080000C40ED51ECC15DD0571F06991D701ED91AF
:10081000FC910190F081E02DC7010995F3CF642F81
:10082000822F0E949903C801DF91CF911F910F91F0
:10083000FF90EF90DF90CF900895CF93DF931F92BA
:10084000CDB7DEB769832091AC022223D1F020918D
:10085000CF02203240F021E030E0FC0133832283DC
:1008600080E090E015C08091AD02E82FF0E0E25505
:10087000FD4F998190838F5F8093AD028093CF026B
:1008800005C061E0CE0101960E94990381E090E0ED
:100890000F90DF91CF9108950E9422320F931F9302
:1008A000CF93DF93EC0188819981009729F02A8109
:1008B0003B812617370788F48B016F5F7F4F0E94BB
:1008C0005831009761F0998388831B830A832C81B8
:1008D0003D81232B11F4FC01108281E001C080E0F6
:1008E000DF91CF911F910F910895EF92FF920F9397
:1008F0001F93CF93DF9300D0CDB7DEB78C01698310
:100900001A82FC01E480F580FFEFEF1AFF0AB701BD
:100910000E944E04882381F0F80120813181848176
:100920009581BE016F5F7F4F820F931F0E943D3202
:10093000F801F582E48281E00F900F90DF91CF9172
:100940001F910F91FF90EF900895EF92FF920F93F8
:100950001F93CF93DF93EC017B018A01BA010E94C0
:100960004E042881398181110DC02115310519F0FE
:10097000C9010E94C030198218821D821C821B820C
:100980001A8206C01D830C83B701C9010E943D3243
:10099000CE01DF91CF911F910F91FF90EF900895BD
:1009A000FC01808191810C94C030FB01DC01119627
:1009B0001C921E9213961C921E92129715961C92D0
:1009C0001E9214978617970749F06081718161150F
:1009D000710521F0448155810C94A5040895FC0112
:1009E00011821082138212821582148261157105A0
:1009F00051F0FB0101900020E9F73197AF01461B50
:100A0000570B0C94A50408951F920F920FB60F92E6
:100A100011242F933F934F935F936F937F938F9303
:100A20009F93AF93BF93EF93FF9387E193E00E946F
:100A3000D202FF91EF91BF91AF919F918F917F91E2
:100A40006F915F914F913F912F910F900FBE0F903B
:100A50001F9018951F920F920FB60F9211242F938B
:100A60008F939F93EF93FF93E0912703F0912803D7
:100A70008081E0912D03F0912E0382FD12C09081C0
:100A8000809130038F5F8F7320913103821751F073
:100A9000E0913003F0E0E95EFC4F958F80933003E6
:100AA00001C08081FF91EF919F918F912F910F90C5
:100AB0000FBE0F901F901895CF93DF93282F30E033
:100AC000F901E25EFB4F8491F901EE58FB4FD4919E
:100AD000F901E25AFB4FC491CC2391F081110E949D
:100AE0006603EC2FF0E0EE0FFF1FE058FE4FA591DC
:100AF000B491EC91ED2381E090E021F480E002C01C
:100B000080E090E0DF91CF9108951F93CF93DF9322
:100B1000282F30E0F901E25EFB4F8491F901EE5895
:100B2000FB4FD491F901E25AFB4FC491CC23C9F099
:100B3000162F81110E946603EC2FF0E0EE0FFF1FCD
:100B4000EC5AFB4FA591B4918FB7F894111105C0E1
:100B50009C91ED2FE095E92302C0EC91ED2BEC93F5
:100B60008FBFDF91CF911F910895CF93DF9390E0D6
:100B7000FC01EE58FB4F2491FC01E25AFB4F84919B
:100B8000882361F190E0880F991FFC01EC5EFB4F18
:100B9000C591D491FC01EC5AFB4FA591B491611120
:100BA00009C09FB7F8948881209582238883EC91AF
:100BB0002E230BC0623061F49FB7F8943881822FE6
:100BC000809583238883EC912E2B2C939FBF06C0A6
:100BD0008FB7F894E8812E2B28838FBFDF91CF91B8
:100BE00008951F93CF93DF93182FEB0161E00E94CC
:100BF000B505209711F460E004C0CF3FD10539F46A
:100C000061E0812FDF91CF911F910C948505E12F39
:100C1000F0E0E25EFB4FE491E330F9F048F4E130BC
:100C2000B9F0E230A1F584B5806284BDC8BD34C09E
:100C3000E730E9F0E83019F1E43049F580918000BF
:100C4000806280938000D0938B00C0938A0024C080
:100C500084B5806884BDC7BD1FC080918000806856
:100C600080938000D0938900C093880015C0809144
:100C7000B00080688093B000C093B3000DC0809135
:100C8000B00080628093B000C093B40005C0C0384B
:100C9000D1050CF0B5CFAFCFDF91CF911F91089563
:100CA0008E3008F08E508770806480937C00809135
:100CB0007A00806480937A0080917A0086FDFCCF70
:100CC000809178002091790090E0922B08953FB7B1
:100CD000F8948091A2029091A302A091A402B091F5
:100CE000A50226B5A89B05C02F3F19F00196A11DAE
:100CF000B11D3FBFBA2FA92F982F8827820F911DB2
:100D0000A11DB11DBC01CD0142E0660F771F881FF8
:100D1000991F4A95D1F708958F929F92AF92BF92F3
:100D2000CF92DF92EF92FF926B017C010E946706E7
:100D30004B015C01C114D104E104F104F1F00E9403
:100D40006706DC01CB0188199909AA09BB09883E0D
:100D50009340A105B10570F321E0C21AD108E10862
:100D6000F10888EE880E83E0981EA11CB11CC11406
:100D7000D104E104F10419F7DDCFFF90EF90DF908B
:100D8000CF90BF90AF909F908F9008952FB7F89419
:100D900060919E0270919F028091A0029091A102A9
:100DA0002FBF08951F920F920FB60F9211242F9309
:100DB0003F938F939F93AF93BF9380919E029091A7
:100DC0009F02A091A002B091A10230919D0223E068
:100DD000230F2D3720F40196A11DB11D05C026E873
:100DE000230F0296A11DB11D20939D0280939E02A8
:100DF00090939F02A093A002B093A1028091A202BF
:100E00009091A302A091A402B091A5020196A11D08
:100E1000B11D8093A2029093A302A093A402B09369
:100E2000A502BF91AF919F918F913F912F910F900C
:100E30000FBE0F901F901895CF92DF92EF92FF9206
:100E4000CF93DF93EC01603282E078070CF03DC075
:100E500077FD06C0653B71052CF064EB70E002C0C5
:100E600060E070E0898128E830E06901C81AD108A3
:100E700087FDD394CC0CDD1CCC0CDD1C0D2C000CA0
:100E8000EE08FF088A8128E532E0281B310987FD3A
:100E90003395220F331F220F331FC901330FAA0BC3
:100EA000BB0B9C01AD012C193D094E095F09DB010B
:100EB0000E94D83324EB30E040E050E00E94AE3393
:100EC000C20ED31EE41EF51EB60188818C3080F55B
:100ED000998148E850E0491B510997FD5395440F0B
:100EE000551F440F551F6417750784F09A8128E534
:100EF00032E0291B310997FD3395220F331F220F52
:100F0000331FAB01261737070CF4A90142505109D2
:100F1000440F551F2FB7F89490E0FC01EE0FFF1F10
:100F20008E0F9F1FFC01E25DFB4F528341832FBF59
:100F3000DF91CF91FF90EF90DF90CF9008951F93B6
:100F4000CF93DF93EC01162F88818C3008F04EC0D0
:100F500061E0812F0E94B5058881E82FF0E09F01B4
:100F6000220F331FE20FF31FE25DFB4F1F779081CB
:100F70009078192B108319821A826CE00E94402C01
:100F80009CE0899FB001112440E050E09A01260FB7
:100F9000371FF901EE0FFF1F2E0F3F1FF901E25D12
:100FA000FB4F908197FD16C04F5F5F4F4C3051054E
:100FB00069F781110FC01092800082E08093810058
:100FC0001092850010928400B19A80916F00826027
:100FD00080936F00E881F0E0CF01880F991FE80F40
:100FE000F91FE25DFB4F8081806880838881DF91FB
:100FF000CF911F9108951F920F920FB60F92112457
:101000002F933F934F935F936F937F938F939F9310
:10101000AF93BF93EF93FF9380919C0287FF05C02E
:1010200010928500109284001BC020919C02022E19
:10103000000C330B8091520490E02817390784F498
:1010400080919C02082E000C990BFC01EE0FFF1FF3
:101050008E0F9F1FFC01E25DFB4F808187FD15C055
:1010600080919C028F5F80939C0220919C02022EB3
:10107000000C330B8091520490E028173907C4F418
:1010800080919C028C3064F113C080919C02082EE8
:10109000000C990BFC01EE0FFF1F8E0F9F1FFC0130
:1010A000E25DFB4F808160E08F770E948505D8CF9D
:1010B0008091840090918500049680349C4918F4B6
:1010C00080E49CE905C0809184009091850004969D
:1010D00090938900809388008FEF80939C023BC09F
:1010E000209184003091850080919C02082E000C94
:1010F000990BFC01EE0FFF1F8E0F9F1FFC01E25D9D
:10110000FB4F81819281820F931F9093890080937E
:10111000880080919C02082E000C990BFC01EE0FB8
:10112000FF1F8E0F9F1FFC01E25DFB4F808187FF39
:1011300012C080919C02082E000C990BFC01EE0F4E
:10114000FF1F8E0F9F1FFC01E25DFB4F808161E05E
:101150008F770E948505FF91EF91BF91AF919F918D
:101160008F917F916F915F914F913F912F910F9050
:101170000FBE0F901F901895DC01E62FF0E0EE0FE8
:10118000FF1FEE5EFE4F80818C93818111968C93C0
:10119000119712966C930895CF93DF93EC0160E062
:1011A00089810E94B5058981DF91CF910C94500609
:1011B000CF93DF93EC0160E088810E94B5058881C0
:1011C000DF91CF910C9450061F93CF93DF93EC01E6
:1011D000162F61E089810E94B505612F8981DF9119
:1011E000CF911F910C948505CF93DF93EC018881FB
:1011F0000E94B50588810E945C0521E0892B09F4D5
:1012000020E0822FDF91CF910895DC01E62FF0E0FE
:10121000EE0FFF1FEE5EFE4F80818C938181119651
:101220008C93119712966C930895FC011082118291
:1012300012820895F89482E08093B0008093B10008
:1012400094E69093B3001092B2008093700078946B
:1012500010922C048093C10308951F920F920FB631
:101260000F9211240F931F932F933F934F935F93EC
:101270006F937F938F939F93AF93BF93CF93EF938E
:10128000FF9382E00E945C05C82F8091C603909175
:10129000C70301969093C7038093C60380912C04E3
:1012A000843618F085E08093C1039091C103933098
:1012B00079F018F4923039F072C0943011F1953011
:1012C00009F44AC06CC0C1116AC010922C0429C034
:1012D000C13009F064C0E0912C0481E08E0F80934E
:1012E0002C04F0E08091C6039091C703E054FC4FBA
:1012F00080871092C7031092C60384E08093C103D5
:101300004EC0C11114C0E0912C0481E08E0F809377
:101310002C04F0E08091C6039091C703E054FC4F89
:1013200080871092C7031092C60383E0E7CF8091B5
:10133000C6039091C7038536910588F185E08093B7
:10134000C1030E94C6066093C2037093C3038093D7
:10135000C4039093C50323C00E94C6060091C20334
:101360001091C3032091C4033091C503DC01CB016C
:10137000801B910BA20BB30B893C9105A105B10514
:1013800040F010922C041092C7031092C60382E022
:10139000B5CFC11104C01092C7031092C603FF91CC
:1013A000EF91CF91BF91AF919F918F917F916F916D
:1013B0005F914F913F912F911F910F910F900FBE11
:1013C0000F901F9018951F920F920FB60F92112435
:1013D0002F933F934F935F936F937F938F939F933D
:1013E000AF93BF93EF93FF938091B900887F8036CE
:1013F00009F49CC068F5883209F45BC090F4803130
:1014000009F454C038F4882309F4F6C0883009F48C
:101410004DC0F6C0883109F44CC0803209F45DC07B
:10142000EFC0803409F468C048F4803309F455C033
:10143000883309F0E5C080931403D8C0803509F4DF
:101440004FC0883509F45DC0883409F0D9C0D6C0D2
:10145000883909F4C7C0A8F4883709F467C038F49C
:10146000883609F463C0803709F460C0C9C0883881
:1014700009F4B8C0803909F45FC0803809F0C0C0F1
:101480005BC0803B09F486C038F4803A09F466C03A
:10149000883A09F47FC0B4C0803C09F4A7C0883CF6
:1014A00009F4A4C0883B09F48AC0AAC08091110342
:1014B00010C09091130380911203981770F5E0917A
:1014C000130381E08E0F80931303F0E0E051FD4F92
:1014D00080818093BB0085EC86C0809314038EC00E
:1014E000E091130381E08E0F809313038091BB0082
:1014F000F0E0E051FD4F808390911303809112033F
:101500006EC0E091130381E08E0F809313038091EE
:10151000BB00F0E0E051FD4F808380911503811105
:101520006DC081E08093100384EA61C083E0809302
:10153000160310929B02CFCF80919B02803208F05D
:1015400051C0E0919B0281E08E0F80939B028091BD
:10155000BB00F0E0E558FD4F8083BDCF85EC809364
:10156000BC001092160380919B02803230F4E0910F
:101570009B02F0E0E558FD4F108260919B0270E005
:10158000E0917902F0917A028BE792E0099510924E
:101590009B0236C084E0809316031092780210926A
:1015A0007702E0917502F0917602099580917702B9
:1015B000811105C081E08093770210925502E0917D
:1015C000780281E08E0F80937802F0E0EB5AFD4FB5
:1015D00080818093BB009091780280917702981768
:1015E00008F479CF85E88093BC000AC085EC80932D
:1015F000BC001092160304C0109214030E948F03C3
:10160000FF91EF91BF91AF919F918F917F916F91DA
:101610005F914F913F912F910F900FBE0F901F90B0
:1016200018951092160381E0809315031092100311
:1016300061E082E10E94850561E083E10E94850509
:10164000E9EBF0E080818E7F808380818D7F8083D5
:1016500088E48093B80085E48093BC000895E3E5B6
:10166000F2E0DC01A454BE4F8C91808311968C91E2
:10167000818380915302909154020895682F87E1ED
:1016800093E00C94F302CF92DF92EF92FF92CF930C
:10169000DF936B017C0183E00E943E0BC701B60122
:1016A0000E94CB2D862F262F372F30935402209364
:1016B0005302C3E5D2E00E943E0B89810E943E0B9B
:1016C0008A810E943E0B8B81DF91CF91FF90EF903A
:1016D000DF90CF900C943E0BCF92DF92FF920F934E
:1016E0001F93CF93DF931F92CDB7DEB7162FF72E40
:1016F000082F82E099830E943E0B88EBC82E81E080
:10170000D82E412F5F2D602F9981792FF6014083CC
:10171000518362837383812F0E943E0BF601818186
:101720000E943E0BF60182810E943E0BF6018381EE
:101730000F90DF91CF911F910F91FF90DF90CF908D
:101740000C943E0BEF92FF920F931F93CF93DF9376
:101750008C01FC01C481EC2EF58084E00E943E0BDC
:101760008C2F0E943E0BC0E0D0E0CE15DF05A4F424
:10177000F80184819581C817D90748F48081918147
:10178000009729F0FC01EC0FFD1F808101C080E073
:101790000E943E0B2196E9CFDF91CF911F910F91CF
:1017A000FF90EF900895CF93C82F81E00E943E0BE9
:1017B0008C2FCF910C943E0B8FEF0E943E0B85E552
:1017C0000E943E0B8EE591E00C9449178FEF0E942A
:1017D0003E0B85E50C943E0BCF93DF93CAE5D5E035
:1017E00060E088850E94850560E089850E94850506
:1017F00061E088850E94850561E08985DF91CF9150
:101800000C948505CF93DF93CAE5D5E061E0888528
:101810000E94850561E089850E94850560E08985D3
:101820000E94850560E08885DF91CF910C94850545
:10183000CF93DF93D82FC8E060E0809162050E94CB
:101840008505D0FF02C061E001C060E080916305C2
:101850000E948505D69561E0809162050E9485050C
:10186000C15051F760E0809162050E94850561E0FA
:10187000809163050E94850561E0809162050E9468
:10188000850560E0809163050E94B505C8EC8091F4
:1018900063050E945C05892B69F0C150C1F761E0C6
:1018A000809163050E94B50560E0809163050E9408
:1018B0008505ECCF61E080916305DF91CF910C94B9
:1018C000B505EF92FF920F931F93CF93DF93162FDF
:1018D000D72FC42F9091FC0421E02093AC02909369
:1018E000CE021092AD021092CF02682F84EB93E0EB
:1018F0000E941D04813049F580E00E949F178111EC
:101900002CC06C2FC13208F060E28091FC040E9470
:101910005B171092A6028093A702E12EFD2E00E035
:1019200010E0D0E09091A7028091A602981779F07C
:101930000C171D0764F40F5F1F4F84EB93E00E94A8
:10194000D103F70181937F01EDCF8FEF06C081E0D6
:101950000C171D0709F480E08195DF91CF911F914D
:101960000F91FF90EF900895CF93DF93EB0190914B
:10197000FC0421E02093AC029093CE021092AD02C1
:101980001092CF02682F84EB93E00E941D048130F7
:1019900061F441E050E0BE0184EB93E00E94ED036E
:1019A00081E0DF91CF910C949F178FEFDF91CF9162
:1019B00008950F931F93CF93DF93809176059091B5
:1019C0007705EC01CC0FDD1FC80FD91F00917805FA
:1019D00010917905AE01B80180917A0590917B054F
:1019E0000E942732892B09F43BC0A0917C05B0915D
:1019F0007D05809180053FB7F8942C91982F9095A4
:101A00009223822BF801CE0FDF1FEC17FD0781F028
:101A1000219148E08C9300C027FF9C93220F00C0C7
:101A200000C000C008F49C9300C04A9599F7EDCF20
:101A30003FBF4091760550917705CA01880F991FE5
:101A4000480F591F609178057091790580917A054A
:101A500090917B050E9434328BEC97E00197F1F76F
:101A6000DF91CF911F910F910895E0E0F0E0209178
:101A7000760530917705E217F30710F5DF01BB27F4
:101A8000A217B307D8F42E2F220F2E0F30E0A0910B
:101A90007805B0917905A20FB31F6C93A0917805DA
:101AA000B0917905A20FB31F11968C93A091780580
:101AB000B0917905A20FB31F12964C933196D7CFF0
:101AC00081E008954F925F926F927F928F929F92E2
:101AD000AF92BF92CF92DF92EF92FF920F931F933C
:101AE000CF93DF934A015B019C0140E050E060E44A
:101AF00072E48FE090E00E94AE3369017A0161E008
:101B000080912D040E94B505A8EEB3E0A5019401D3
:101B10000E94CD332B013C01E601D7FC2196D595DF
:101B2000C7958E01000F111F000F111F05501109DD
:101B30000D2C000CEE08FF08812C912C540184140C
:101B40009504A604B704E0F461E080912D040E949E
:101B50008505C230D10518F0C8010197F1F760E0A2
:101B600080912D040E948505C230D10518F0C8016E
:101B70000197F1F7A8958C0C9D1CAE1CBF1CDFCF04
:101B8000DF91CF911F910F91FF90EF90DF90CF9059
:101B9000BF90AF909F908F907F906F905F904F908D
:101BA00008958F929F92AF92BF920F931F93CF93FE
:101BB000DF93CDB7DEB7A1970FB6F894DEBF0FBEA7
:101BC000CDBF19A2423008F44AE08E010F5D1F4FCD
:101BD000842E912CA12CB12CA50194010E941734C4
:101BE000E62FB901CA0101501109EA3014F4E05D91
:101BF00001C0E95CD801EC93232B242B252B61F742
:101C0000C8010E944917A1960FB6F894DEBF0FBE17
:101C1000CDBFDF91CF911F910F91BF90AF909F905B
:101C20008F9008954F925F926F927F928F929F92C2
:101C3000AF92BF92CF92DF92EF92FF926B017C0145
:101C40009B01AC010E94272F882319F083E891E0C3
:101C50001AC046015701E894B7F82FEF3FEF4FE75E
:101C60005FE7C501B4010E94272F811110C02FEF3B
:101C70003FEF4FE75FE7C501B4010E9474321816C9
:101C800034F487E891E00E9449177C0188C02FEF67
:101C90003FEF4FE75FE4C701B6010E94802E1816A0
:101CA0001CF48BE891E0EFCF2FEF3FEF4FE75FECB5
:101CB000C701B6010E94743287FDF3CF20E030E007
:101CC000A901C701B6010E94743287FF11C0E091DB
:101CD0001703F09118030190F081E02D6DE287E188
:101CE00093E009955C01F7FAF094F7F8F09402C0DC
:101CF000A12CB12C2AE037ED43EA5BE3C701B60122
:101D00000E947B2C2B013C010E94D22D6B017C0197
:101D10000E9479329B01AC01C301B2010E947A2C6E
:101D20002B013C014AE0C701B6010E94D10D7C01A4
:101D3000EA0CFB1C8FE891E00E944917E80EF91E9F
:101D400020E030E040E251E4C301B2010E94DA3207
:101D50002B013C010E94D22D4B01A12CB12C4AE059
:101D6000C501B4010E94D10DE80EF91EC501B401F0
:101D70000E9479329B01AC01C301B2010E947A2C0E
:101D800020E030E040E251E40E94DA320E94D22D9D
:101D900080E090E04AE00E94D10DE80EF91E8EE549
:101DA00091E00E9449178E0D9F1DFF90EF90DF90EC
:101DB000CF90BF90AF909F908F907F906F905F90EB
:101DC0004F900895CF93DF93EC0140E050E060E640
:101DD00071E00E94A504CE01DF91CF9108954F924A
:101DE0005F926F927F928F929F92AF92BF92CF92AB
:101DF000DF92EF92FF920F931F93CF93DF937C01BB
:101E00006AE00E947504C0E0D0E044244394F9E005
:101E10005F2EA2ED6A2EB6E47B2E1BE9C12E1CE8D4
:101E2000D12E0BE4A02E06E4B02E0BEB18E08BEFC6
:101E3000882E88E1982EF70184819581C817D907EB
:101E400008F06EC0F70180819181009729F0FC01B4
:101E5000EC0FFD1F808101C080E0482F409550E0CD
:101E600060E070E0762F652F542F4427480F511DF6
:101E7000611D711DBA01552744274F6F10927000E4
:101E80004092B0005092B1006092B3007092B400E2
:101E90008091B00080628093B000C6010197F1F795
:101EA0008091B0008F7D8093B000C5010197F1F75C
:101EB00080E290E02091B00020622093B000F80111
:101EC00040FF09C03197F1F72091B0002F7D20939A
:101ED000B000F40108C03197F1F72091B0002F7DD8
:101EE0002093B000F8013197F1F7769567955795F3
:101EF00047950197F9F68091B00080628093B00019
:101F0000C8010197F1F78091B0008F7D8093B000F8
:101F100064E170E080E090E00E948C0621968BCF17
:101F2000F89482E08093B0008093B10094E690939F
:101F3000B3001092B2008093700078948093C10334
:101F400010922C048091C00360E0DF91CF911F912B
:101F50000F91FF90EF90DF90CF90BF90AF909F9048
:101F60008F907F906F905F904F900C94B505EF929B
:101F7000FF920F931F93CF93DF938C0161E08091C9
:101F800029050E94850560E080912A050E9485054B
:101F9000C8E0D0EC60E0809129050E9485056D2F96
:101FA000617080912A050E94850561E08091290574
:101FB0000E948505D695C15069F7E801780180E156
:101FC000E80EF11C099118E060E0809129050E945B
:101FD0008505602F607880912A050E94850561E063
:101FE000809129050E948505000F115069F7CE15D3
:101FF000DF0541F760E0809129050E94850560E0DA
:1020000080912A050E94850561E0809129050E9442
:10201000850561E080912A05DF91CF911F910F9195
:10202000FF90EF900C948505CF93DF9300D000D004
:10203000CDB7DEB79C01DE011196AD0194E09A0F99
:10204000F90181919F01FA018193AF019E13F8CFAD
:1020500080E22C91223208F08C93EC91F0E0EE5C5F
:10206000FB4FE491ED939A13F4CF0E94020C80E4AD
:102070000E94180C0E94EC0B0E94020C80915F05DC
:102080000E94180C89810E94180C8A810E94180CE9
:102090008B810E94180C8C810E94180C0E94EC0B02
:1020A0000E94020C809160050E94180C0F900F9006
:1020B0000F900F90DF91CF910C94EC0BCF93DF93A7
:1020C0008F3F910519F014F08FEF90E0EC01C130D3
:1020D0008FEFD80714F4C1E0DFEF80919A0590915B
:1020E0009B058C179D07E1F0D0939B05C0939A0543
:1020F000D7FD07C061E084E995E00E94E408BE01D5
:1021000009C060E084E995E00E94E408662777272B
:102110006C1B7D0B80919405DF91CF910C94F105A0
:10212000DF91CF910895CF93DF93EC0160E0898137
:102130000E94B50589810E945C0521E0892B09F484
:1021400020E0822FDF91CF910895EF92FF920F93BD
:102150001F93CF93DF93162FD72FC42F90919A04FC
:1021600021E02093AC029093CE021092AD02109227
:10217000CF02682F84EB93E00E941D04813049F563
:1021800080E00E949F1781112CC06C2FC13208F093
:1021900060E280919A040E945B171092A6028093DD
:1021A000A702E12EFD2E00E010E0D0E09091A70202
:1021B0008091A602981779F00C171D0764F40F5F41
:1021C0001F4F84EB93E00E94D103F70181937F01BD
:1021D000EDCF8FEF06C081E00C171D0709F480E0FA
:1021E0008195DF91CF911F910F91FF90EF9008950E
:1021F0004F925F926F927F928F929F92AF92BF9217
:10220000CF92DF92EF92FF920F931F93CF93DF93C2
:10221000CDB7DEB72C970FB6F894DEBF0FBECDBF9B
:102220004EE06EEE74E08BE30E94610C81114CC2B3
:10223000A090EE04B12CBA2CAA248091EF04850161
:10224000082B1093DD040093DC04E090F004F12CE3
:10225000FE2CEE248091F104E82AF092DF04E09253
:10226000DE048090F204912C982C88248091F30451
:10227000882A9092E1048092E0044090C00450903B
:10228000C1046090C2047090C3046091F60470E0D1
:10229000762F66278091F704682B072E000C880B99
:1022A000990B0E947B322091E2043091E30440912B
:1022B000E4045091E5040E947A2CA30192010E944B
:1022C000592D6093D0047093D1048093D2049093DD
:1022D000D3046091F80470E0762F66278091F904AA
:1022E000682B072E000C880B990B0E947B322091E3
:1022F000E6043091E7044091E8045091E9040E941B
:102300007A2CA30192010E94592D6093D4047093FA
:10231000D5048093D6049093D7046091FA0470E0BA
:10232000762F66278091FB04682B072E000C880B04
:10233000990B0E947B322091EA043091EB0440918A
:10234000EC045091ED040E947A2CA30192010E94AA
:10235000592D6093D8047093D9048093DA04909334
:10236000DB04B701FF0C880B990B0E947B326B01D9
:102370007C01B401990C880B990B0E947B329B0164
:10238000AC010E94DA324B015C01A7019601C70142
:10239000B6010E94DA32A50194010E947B2C0E94B2
:1023A000E32E9B01AC01B801110F880B990B298713
:1023B0003A874B875C870E947B322B013C01298541
:1023C0003A854B855C850E94FA2C20E030E044E39E
:1023D00053E40E94DA322AED3FE049E450E40E94DF
:1023E000592D69837A838B839C83A3019201C30156
:1023F000B2010E94DA32A50194010E947B2C0E9456
:10240000E32E9B01AC01C701B6010E94FA2C20E02B
:1024100030E044E353E40E94DA322AED3FE049E43D
:1024200050E40E94592D6D837E838F8398870E948C
:10243000C606C090A802D090A902E090AA02F0902F
:10244000AB026C197D098E099F090E94793220E048
:1024500030E04AE754E40E94592D6B017C010E9450
:10246000C6066093A8027093A9028093AA02909373
:10247000AB028091E0049091E1042091D40430916A
:10248000D5044091D6045091D704181619068CF53E
:10249000C701B6010E94DA329B01AC016091C4040D
:1024A0007091C5048091C6049091C7040E947A2C53
:1024B0006093C4047093C5048093C6049093C704CA
:1024C0002091D0043091D1044091D2045091D30492
:1024D000C701B6010E94DA329B01AC016091C804C9
:1024E0007091C9048091CA049091CB040E947B2C06
:1024F00030C0C701B6010E94DA329B01AC01609185
:10250000C4047091C5048091C6049091C7040E94D0
:102510007B2C6093C4047093C5048093C60490938D
:10252000C7042091D0043091D1044091D20450913D
:10253000D304C701B6010E94DA329B01AC0160915D
:10254000C8047091C9048091CA049091CB040E9480
:102550007A2C6093C8047093C9048093CA04909342
:10256000CB042091D8043091D9044091DA045091E1
:10257000DB04C701B6010E94DA322091CC0430910D
:10258000CD044091CE045091CF040E947B2C2B01AE
:102590003C0120E030E044EB53E40E94592D0E94BE
:1025A000012E20E030E044EB53E40E94DA329B013C
:1025B000AC01C301B2010E947A2C2B013C0120E046
:1025C00030E044E353E40E94802E18164CF0409211
:1025D000CC045092CD046092CE047092CF0410C00F
:1025E00020E030E044EB53E4C301B2010E947A2CB6
:1025F0006093CC047093CD048093CE049093CF0469
:1026000020E030E040E05FE3C701B6010E947B2C90
:102610009B01AC0160E070E080E09FE30E94592DD7
:102620006B017C019B01AC0160E070E080E89FE3FE
:102630000E947A2C4B015C012091C4043091C504A6
:102640004091C6045091C704C701B6010E94DA3216
:102650002B013C01A501940169817A818B819C81C8
:102660000E94DA329B01AC01C301B2010E947B2CB3
:102670006093C4047093C5048093C6049093C70408
:102680002091C8043091C9044091CA045091CB04F0
:10269000C701B6010E94DA326B017C01A5019401E9
:1026A0006D817E818F8198850E94DA329B01AC0119
:1026B000C701B6010E947B2C6093C8047093C904C3
:1026C0008093CA049093CB042C960FB6F894DEBF87
:1026D0000FBECDBFDF91CF911F910F91FF90EF9073
:1026E000DF90CF90BF90AF909F908F907F906F9032
:1026F0005F904F900895CF93DF93EB0190919A04F0
:1027000021E02093AC029093CE021092AD02109281
:10271000CF02682F84EB93E00E941D04813061F4A6
:1027200041E050E0BE0184EB93E00E94ED0381E0C4
:10273000DF91CF910C949F178FEFDF91CF91089588
:10274000CF92DF92EF92FF920F931F93CF93DF937D
:102750001F92CDB7DEB76C017B018A010E94F41392
:1027600046E064E974E083E00E94A510882321F02C
:10277000082E000C990B2EC080919B04813039F4F7
:102780008983BE016F5F7F4F82E00E947B1320919F
:10279000940430E0322F222780919504282BF601F3
:1027A000318320838091980490E0982F882720918E
:1027B0009904822BF701918380838091960490E0A5
:1027C000982F882720919704822BF801918380838A
:1027D00080E090E00F90DF91CF911F910F91FF90DB
:1027E000EF90DF90CF9008952F923F924F925F929B
:1027F0006F927F928F929F92AF92BF92CF92DF9211
:10280000EF92FF920F931F93CF93DF93CDB7DEB775
:10281000A6970FB6F894DEBF0FBECDBF62E08FE87B
:1028200094E00E94F40881112FC26AE070E080E019
:1028300090E00E948C0662E08FE894E00E94F40829
:10284000811122C243E064E974E08AE00E94A5108D
:1028500081111AC280919404883409F015C28091C4
:102860009504843309F010C280919604833309F0F3
:102870000BC20E94C6064B015C01F12C11E062E024
:102880008FE894E00E94F408811119C00E94C606E6
:10289000DC01CB0188199909AA09BB09893C91057A
:1028A000A105B10560F3A8950E94C6064B015C0125
:1028B000F1266F2D8FE894E00E94E408E0CF64E6F3
:1028C00070E080E090E00E948C060E94C6062B011A
:1028D0003C012FEF3FE73C872B8740E050E85E87C5
:1028E0004D878FEF9FE798878F83A0E0B0E8BA8786
:1028F000A98722242A948FE7382E00E010E8EE24DE
:10290000E3940E94C606DC01CB0188199909AA0943
:10291000BB09893C9105A105B10558F0A8950E9415
:10292000C6064B015C01FE246F2D8FE894E00E94E7
:10293000E4080E94C606DC01CB0184199509A609AA
:10294000B7090B97A105B105C0F1A895AE014F5F7E
:102950005F4FBE016D5F7F4FCE0105960E94A013B1
:102960008D819E81821593052CF0081719071CF4A0
:102970008C0101C01C018B819C812F8138858217BD
:10298000930744F049855A85481759072CF49A87CC
:10299000898702C098878F8389819A81AB85BC859E
:1029A0008A179B0744F02D853E85281739072CF49C
:1029B0009E878D8702C09C878B8762E08FE894E0BA
:1029C0000E94F40881119DCF60E08FE894E00E949E
:1029D000E408B801012E000C880B990B0E947B3291
:1029E0004B015C01B101032C000C880B990B0E9478
:1029F0007B326F87788B898B9A8B9B01AC01C501E9
:102A0000B4010E947B2C905820E030E040E05FE36E
:102A10000E94DA326B8B7C8B8D8B9E8B60939C0437
:102A200070939D0480939E0490939F0449855A85DA
:102A3000BA01550F880B990B0E947B326B017C0108
:102A4000AF81B885BD01BB0F880B990B0E947B320B
:102A50006F8B788F898F9A8F9B01AC01C701B6016C
:102A60000E947B2C905820E030E040E05FE30E9421
:102A7000DA326B8F7C8F8D8F9E8F6093A004709362
:102A8000A1048093A2049093A3042D853E85B901EF
:102A9000330F880B990B0E947B322B013C014B8535
:102AA0005C85BA01550F880B990B0E947B326F8FA2
:102AB00078A389A39AA39B01AC01C301B2010E9430
:102AC0007B2C905820E030E040E05FE30E94DA3257
:102AD0006BA37CA38DA39EA36093A4047093A50411
:102AE0008093A6049093A70480E090E0A0E8BFE361
:102AF0008093A8049093A904A093AA04B093AB0474
:102B00002F85388949895A89C501B4010E947A2CD8
:102B10004B015C012F89388D498D5A8DC701B60153
:102B20000E947A2CA50194010E94592D6B017C0111
:102B30006093AC047093AD048093AE049093AF04A3
:102B40002F8D38A149A15AA1C301B2010E947A2C4C
:102B5000A50194010E94592D4B015C016093B004C2
:102B60007093B1048093B2049093B30402191309D3
:102B700017FF03C011950195110989859A85AF81C9
:102B8000B8858A1B9B0B97FF03C09195819591098E
:102B90002D853E854B855C85241B350B37FF03C097
:102BA000319521953109801791072CF020173107B5
:102BB00014F081E009C0081719072CF0281739070D
:102BC00014F082E001C083E08093B4042B8D3C8D2F
:102BD0004D8D5E8D6B897C898D899E890E947B2CB1
:102BE0002BA13CA14DA15EA10E947B2C20E030E0F6
:102BF00040E85FE30E947B2CA70196010E947B2C9A
:102C0000A50194010E947B2C6B017C018091B4048E
:102C1000682F70E080E090E00E947B329B01AC0165
:102C2000C701B6010E947B2C20E030E04AE253E469
:102C30000E947B2C0E94D22D6093B50400E010E02E
:102C4000F801E157FB4F6585C8010E94A0330F5F73
:102C50001F4F0A311105A1F781E08093930461E0D1
:102C60008FE894E00E94E40862E08FE894E00E941C
:102C7000F408811102C0A895F7CFA89564E670E02A
:102C800080E090E00E948C06A6960FB6F894DEBF16
:102C90000FBECDBFDF91CF911F910F91FF90EF90AD
:102CA000DF90CF90BF90AF909F908F907F906F906C
:102CB0005F904F903F902F900895CF92DF92EF92C8
:102CC000FF920F931F93CF93DF9328E030E041E012
:102CD0006FEF70E09FE0C92ED12CC3E2D0E007ED8A
:102CE00010E090918505E0918605F0918705592FB8
:102CF0005095F42EF82281F0F894F2805F215283EF
:102D00005181592B5183DE011197F1F75281952B97
:102D100092837894F8010FC0F894F2805F21528377
:102D20005181592B5183DB011197F1F75281952B7A
:102D300092837894F6013197F1F7440F21503109CD
:102D400081F6F894E0918605F09187059181809154
:102D50008505809589238183E0918605F09187051B
:102D6000928180918505892B8283E0918605F0917F
:102D70008705928180918505809589238283789447
:102D8000DF91CF911F910F91FF90EF90DF90CF9047
:102D9000089590918505E0918605F0918705F89456
:102DA0008181292F2095822381838281892B8283AF
:102DB00078948DE743E050E0815039F1DA011197C2
:102DC000F1F730813923C1F3F89482818223828321
:102DD0008181892B81837894ABE7B7E01197F1F774
:102DE000F8948181282321838281892B8283A3E126
:102DF000B1E01197F1F78081982381E009F080E03C
:102E00007894E3E6F6E03197F1F70895CF93C09117
:102E10002D0461E08C2F0E94B50560E08C2FCF91CE
:102E20000C948505CF93DF93D82F61E0809129051D
:102E30000E94850560E080912A050E948505C8E012
:102E400060E0809129050E9485056D2F6170809159
:102E50002A050E94850561E0809129050E9485056B
:102E6000D695C15069F760E0809129050E948505DB
:102E700060E080912A050E94850561E08091290526
:102E80000E94850561E080912A05DF91CF910C9425
:102E90008505009769F0FC0101900020E9F7319762
:102EA000AF01481B590BBC0187E193E00C946F0202
:102EB00080E090E00895909116039111FCCF91E08D
:102EC00090931603909315032FEF20931403109201
:102ED0001303260F20931203909311039091110373
:102EE000880F892B8093110380911003813061F446
:102EF00010921003809111038093BB008091BC005D
:102F000083FDF8CF85EC01C085EE8093BC008091F5
:102F100016038130E1F380911303861710F460915A
:102F20001303A0EFB2E020ED32E0F9018E2F821BF7
:102F3000861718F48D918193F9CF862F0895382F35
:102F40002091CF029091CE02213208F049C08091A9
:102F500016038111FCCF42E0409316033093150312
:102F60003FEF309314031092130320931203AEEA41
:102F7000B2E040EF52E0FA013E2F341B321718F452
:102F80003D913193F9CF1092110320911103990FC4
:102F9000922B9093110390911003913061F4109251
:102FA0001003909111039093BB009091BC0093FD8E
:102FB000F8CF95EC01C095EE9093BC00909116036C
:102FC0009230E1F3909114039F3F79F080911403C4
:102FD000803241F080911403803331F084E005C0E9
:102FE00081E003C082E001C083E01092AD02109244
:102FF000CF021092AC020895CF92DF92EF92FF922F
:103000000F931F93E82FF92F05C0015011092109D3
:10301000310961F1908196239417B9F305C00150ED
:1030200011092109310911F1908196239413F7CFE9
:10303000C12CD12CE12CF12C0AC08FEFC81AD80A70
:10304000E80AF80A0C151D052E053F0579F0808168
:103050008623841791F36C2D7D2D8E2D9F2D1F912E
:103060000F91FF90EF90DF90CF90089560E070E0B7
:1030700080E090E01F910F91FF90EF90DF90CF9054
:103080000895CF93DF93CDB7DEB7E9970FB6F894E5
:10309000DEBF0FBECDBF789484B5826084BD84B599
:1030A000816084BD85B5826085BD85B5816085BD43
:1030B00080916E00816080936E00109281008091FB
:1030C0008100826080938100809181008160809383
:1030D0008100809180008160809380008091B100A8
:1030E00084608093B1008091B00081608093B000D3
:1030F00080917A00846080937A0080917A00826067
:1031000080937A0080917A00816080937A00809128
:103110007A00806880937A001092C10061E08DE0AF
:103120000E94B50561E08DE00E9485056CE271E0CA
:1031300080E090E00E948C0660E08DE00E948505B2
:10314000E0912703F091280382E08083E09123033C
:10315000F09124031082E0912503F091260380E191
:10316000808310922F03E0912B03F0912C0386E0D3
:103170008083E0912903F0912A038081806180831C
:10318000E0912903F0912A03808188608083E09197
:103190002903F0912A03808180688083E0912903CC
:1031A000F0912A0380818F7D808364EF71E080E05D
:1031B00090E00E948C0642E350E060E070E084EF13
:1031C00091E00E94620D62E370E080E090E00E9476
:1031D0008C060E9406178DEF94E00E941A09EFE713
:1031E000F4E0E491E0938005EBE6F4E0E491F0E0B4
:1031F000EE0FFF1FEC5AFB4F8591949190937D0544
:1032000080937C0561E08DE00E94B50540E060E0C0
:1032100080E00E94350D0E94D90C80E090E0A3E888
:10322000B2E48093C0049093C104A093C204B0930D
:10323000C3041092C4041092C5041092C6041092E4
:10324000C7041092C8041092C9041092CA041092C4
:10325000CB041092CC041092CD041092CE041092A4
:10326000CF041092D0041092D1041092D204109284
:10327000D3041092D4041092D5041092D604109264
:10328000D7041092D8041092D9041092DA04109244
:10329000DB041092DD041092DC041092DF04109223
:1032A000DE041092E1041092E0041092E204109205
:1032B000E3041092E4041092E5041092E6041092E4
:1032C000E7041092E8041092E9041092EA041092C4
:1032D000EB041092EC041092ED041092A6021092EE
:1032E000A7021092AD021092CF020E94110B60E271
:1032F00073E080E090E00E948C0618A6BE01685D35
:103300007F4F8BE60E94B40C81E08FA3BE01695D04
:103310007F4F8AE10E94B40C88E08EA3BE016A5DF3
:103320007F4F8BE10E94B40C04EF11E0812C912CB3
:103330005401412C512C320119A61AA61BA61CA619
:1033400046E06EEE74E083E40E94610C8091EE042E
:1033500090E0982F88272091EF04822B092E000CF3
:10336000AA0BBB0B29A53AA54BA55CA5280F391FB5
:103370004A1F5B1F29A73AA74BA75CA78091F004BF
:1033800090E0982F88272091F104822B092E000CC1
:10339000AA0BBB0B480E591E6A1E7B1E8091F204BD
:1033A00090E0982F88272091F304822B092E000C9F
:1033B000AA0BBB0B880E991EAA1EBB1E0150110939
:1033C00009F0BECFB4EFCB2EDD24D394E12CF12C49
:1033D00069A57AA58BA59CA5A70196010E94AE338D
:1033E000CA01B9010E947B326093E2047093E30446
:1033F0008093E4049093E504C301B201A701960110
:103400000E94AE33CA01B9010E947B326093E60488
:103410007093E7048093E8049093E904C501B40134
:10342000A70196010E94AE33CA01B9010E947B3206
:103430006093EA047093EB048093EC049093ED04A2
:1034400084E591E00E94491740915D0450915E042B
:103450006091590470915A0487E193E00E946F02D1
:103460008EE591E00E9449178DE80E94121781E0D5
:1034700080932B05AE014F5F5F4F1A0155E0520D4F
:103480005DABE8E9F1E0149160E0812F0E94B505A1
:10349000812F0E94500611E00B970CF010E08091F4
:1034A000F601811771F01093F6010E94E60B80E897
:1034B0000E943E0B812F0E94D30B8EE591E00E946B
:1034C000491700917304109174040E94C606C090BD
:1034D0006304D0906404E0906504F09066049B015E
:1034E000AC012C193D094E095F0969017A0139E0E7
:1034F000C316D104E104F10408F45CC060936304D2
:103500007093640480936504909366048FE594E05F
:103510000E94CC084091670450916804609169044E
:1035200070916A04452B462B472B69F4AC01092E98
:10353000000C660B770B40936F04509370046093FC
:1035400071047093720440916F0450917004609103
:10355000710470917204841B950B97FF03C09195C1
:103560008195910944979CF480916B0490916C042F
:10357000A0916D04B0916E040196A11DB11D8093C0
:103580006B0490936C04A0936D04B0936E048091CF
:10359000670490916804A0916904B0916A0401964F
:1035A000A11DB11D8093670490936804A0936904E2
:1035B000B0936A048091670490916804A0916904B3
:1035C000B0916A040597A105B10571F510926704E1
:1035D000109268041092690410926A0480916B043E
:1035E00090916C04A0916D04B0916E040397A105B5
:1035F000B10570F080916F0490917004A0917104F6
:10360000B09172048C01909374048093730404C08D
:10361000009173041091740410926B0410926C0466
:1036200010926D0410926E04C80164E670E00E946E
:10363000602C6830710528F4FB01E65FFE4F808145
:1036400001C080E0809348020E94C6060E94793241
:1036500020E030E04AE754E40E94592D20914402D2
:103660003091450240914602509147020E947A2CC7
:103670006093400270934102809342029093430210
:103680000E94C6060E94793260933C0270933D020C
:1036900080933E0290933F0288EC93E09093040560
:1036A0008093030580912C0490E09093060580930D
:1036B00005052091C103253009F058C02091C803A9
:1036C00026582D3540F48330910551F48091C9037B
:1036D00081528931D0F08DEF94E00E941A0946C0E2
:1036E00083349105C4F38091C90383548F3298F7D2
:1036F00080E090E0DC0122E030E0F901E054FC4F92
:1037000040854850473050F0E6CF8091CA0388503A
:10371000873008F7109202050C94212AF901EF5323
:10372000FC4F408547514331B8F4B695A79597951E
:103730008795B0682E5F3F4F22343105F1F620E2C5
:10374000209302058093FE049093FF04A09300054C
:10375000B09301050C94212A40854850473008F069
:10376000BACFB695A79597958795E4CF8091320209
:10377000909133020196909333028093320220910C
:103780003B0212164CF48938934134F010923B02FC
:1037900010923302109232021092310287E193E0CC
:1037A0000E94BC02181619064CF481E08093310285
:1037B00087E193E00E949A02809330028091310267
:1037C000882311F40C94FB298091300290912F02F0
:1037D000853561F491110AC080912E028F3FE1F48A
:1037E00081E080932D0280932F0216C080932E02D9
:1037F000992391F0E0912D02E23019F480932C028C
:1038000007C0E33028F090912C02915090932C0245
:10381000F0E0E454FE4F808380912D028F5F84336B
:1038200018F480932D0204C010922D0210922F02E2
:1038300080912F02882311F40C94FB2980912C0293
:1038400081110C94FB2980912D02843010F40C948A
:10385000FB2910922F028091BF0180932B020091CF
:10386000C1019091C001923009F4B9C520F49130A2
:1038700061F00C94F929943011F40C94D929953005
:1038800011F40C94F7290C94F929013031F08EAB26
:103890000E94E60B8EA90E943E0B1091C201212FBF
:1038A00030E0402F50E04433510508F092C5FA0152
:1038B000EC5CFF4F0C94742C8091660590E08217AD
:1038C000930729F0612F84E695E00E94BC080E94CE
:1038D000C60600916A0510916B0520916C05309128
:1038E0006D05DC01CB01801B910BA20BB30B48973C
:1038F000A105B10518F081E0809369058091690503
:10390000882309F460C00E94C60660936A0570931C
:103910006B0580936C0590936D051092690560E0CE
:1039200084E695E00E94E40883E090E00197F1F7D7
:1039300061E084E695E00E94E40883E290E001976C
:10394000F1F760E084E695E00E94E40860E0809191
:1039500065050E94B5058091650590E0FC01EE5873
:10396000FB4F6491FC01E25AFB4FE491F0E0EE0F53
:10397000FF1FE058FE4F8591949108EB16E520E07B
:1039800030E0462F0E94FC176115710581059105F5
:1039900051F06B017C015FEFC51AD50AE50AF50A03
:1039A0008FE0F82203C0C12CD12C7601C701B601EB
:1039B0000E947B3260936E0570936F058093700553
:1039C000909371050CC060916E0570916F058091A8
:1039D0007005909171050E94CB2D6B017C01C11483
:1039E000D104E104F10431F470EAC72E7AE5D72E50
:1039F000E12CF12C0E94E60B80912B020E943E0BE1
:103A0000C701B6010E947B3220E030E048E652E474
:103A10003CC34091C3018091830590E082179307D6
:103A200041F48091840590E0642F70E08617970739
:103A300041F1220F331FF901EE5EFE4F908190930A
:103A400081058181809382051093830540938405CD
:103A5000423009F0892F90E0FC01EE58FB4FE491D1
:103A6000E0938505FC01E25AFB4FE491F0E0EE0F94
:103A7000FF1FE058FE4F85919491909387058093A6
:103A800086050E94C9168CEC0E945D1684E40E9493
:103A90005D160E94C6066B017C0120918505E091B0
:103AA0008605F09187058181922F909589238183E6
:103AB0008281822B828383E290E00197F1F78081FB
:103AC000282311F40C94FF290E94C9168CEC0E9443
:103AD0005D168EEB0E945D1671014FEC50E088E0A0
:103AE00090E011E070E060918505E0918605F0912D
:103AF0008705F8942181262B21832281062F0095AA
:103B00002023228327E030E0D9011197F1F72181AA
:103B1000202321832281262B228323E230E0D90136
:103B20001197F1F720817894FA013197F1F7622328
:103B300009F0712B110F0197B1F6F70171937F0115
:103B4000FDA9FE11CCCF6A8170E0762F66278981AE
:103B5000682B072E000C880B990B0E947B3220E00B
:103B600030E040E85DE30E94DA320CC480915805F1
:103B700090E08217930751F0612F86E595E00E944F
:103B8000BC0860E0809157050E94B50586E595E088
:103B90000E94CC08E8C30091C3018091B80490E072
:103BA0008217930729F0612F86EB94E00E94BC08EE
:103BB000013059F486EB94E00E94D8082091F0017E
:103BC0003091F1018A5E91400CC0023071F486EBB5
:103BD00094E00E94CC088A5E91402091F2013091DD
:103BE000F301BC01620F731F8CC060E070E089C0FC
:103BF00080913402882309F4ECC363E574E0C101C9
:103C00000E94D504C1010E94A20BC1010E94D004F0
:103C10001092340283E594E00E94E20EDAC3109120
:103C2000C3010E94C6060E94793220E030E04AE7D4
:103C300054E40E94592D209137023091380240916E
:103C4000390250913A020E947A2C2DEC3CEC4CE463
:103C50005EE30E94802E18165CF040913B02042E19
:103C6000000C550B212F30E081E04217530709F07B
:103C700080E00E94D30B06C080913B020E94D30BD0
:103C800010923B021092360210923502A2C380912C
:103C9000580590E08217930751F0612F86E595E073
:103CA0000E94BC0860E0809157050E94B50586E53A
:103CB00095E00E94931056C08091580590E08217BD
:103CC000930779F0612F86E595E00E94BC0860E0DB
:103CD000809156050E94B50560E0809157050E94CD
:103CE000B50560E086E595E00E94F408182F86E5AA
:103CF00095E00E949310612F70E0660F771F680FA8
:103D0000711D072E000C880B990B31C30091C30164
:103D10008091580590E08217930711F00C94102AB7
:103D20008091590590E0402F50E08417950711F0DD
:103D30000C94102A62E0013059F4809156050E94DB
:103D4000B50560E086E595E00E94F40880270AC08A
:103D5000809157050E94B50586E595E00E94931075
:103D600061E08627682F70E080E090E00E94793261
:103D700009C3F901EE0FFF1FE657FE4F14910091A2
:103D8000C30160E0812F0E94B505812F0E9450067B
:103D900011E00B970CF010E0812F80270E94D30BCD
:103DA0001093F60116C38091910490E08217930757
:103DB00009F48FC0612F8FE894E00E94BC088091C5
:103DC000900490918F049093F5018093F4011092E8
:103DD000A6021092A7021092AD021092CF020E948A
:103DE000110B61E08FE894E00E94E40880E78DA366
:103DF000BE016B5D7F4F80E00E947B1380E28CA34D
:103E0000BE016C5D7F4F81E00E947B1381E0809357
:103E10009B048BA3BE016D5D7F4F82E00E947B13EC
:103E2000710100E010E0C8010E949833D7018D9322
:103E30007D010F5F1F4F0A311105A9F72D813E81CA
:103E40004F81588569817A818B819C810E947B2C6E
:103E500029853A854B855C850E947B2C2D853E8586
:103E60004F8558890E947B2C29893A894B895C8926
:103E70000E947B2C2D893E894F89588D0E947B2C76
:103E80006B017C01698D70E080E090E00E947B32E4
:103E90009B01AC01C701B6010E947B2C20E030E001
:103EA0004AE253E40E947B2C0E94D22D8A8D681333
:103EB0000CC08AE1F101ACE9B4E001900D928A9561
:103EC000E1F781E08093930402C0109293040E9472
:103ED000F4130E94F413A101BE01655E7F4FCE0171
:103EE00081960E94A013882331F0682F880F770BEA
:103EF000880B990B3CC28091930469A17AA10B8D28
:103F00001C8D882309F481C0072E000C880B990BA7
:103F10000E947B3220919C0430919D0440919E042C
:103F200050919F040E947B2C2091A8043091A904F9
:103F30004091AA045091AB040E94DA320E94CB2D2A
:103F40006B017C01B801110F880B990B0E947B3229
:103F50002091A0043091A1044091A2045091A304A7
:103F60000E947B2C2091AC043091AD044091AE04B2
:103F70005091AF040E94DA320E94CB2D4B015C01BC
:103F800069817A81072E000C880B990B0E947B3285
:103F90002091A4043091A5044091A6045091A70457
:103FA0000E947B2C2091B0043091B1044091B20466
:103FB0005091B3040E94DA320E94CB2D2091B404B8
:103FC000213029F4072E000C880B990B15C02230E4
:103FD00069F4072E000C880B990B0E947B329B0121
:103FE000AC01B601DD0C880B990B1BC0233041F5E9
:103FF000B601DD0C880B990B0E947B329B01AC0152
:10400000B401990C880B990B0CC0072E000C880B7F
:10401000990B0E947B329B01AC01B801110F880BF8
:10402000990B2EAB3FAB48AF59AF0E947B322EA904
:104030003FA948AD59AD0E94FA2C6B017C0103C029
:10404000C12CD12C760120E030E0A901C701B601D6
:104050000E94743287FF0DC02BED3FE049EC50E425
:10406000C701B6010E947B2C20E030E044E353E41A
:1040700006C020E030E044E353E4C701B6010E94EB
:10408000DA322BED3FE049E450E40E94592D7AC129
:10409000F090C30180918A0490E08217930729F081
:1040A000612F88E894E00E94BC0885E0F10111923C
:1040B0008A95E9F760E088E894E00E94E40864E10A
:1040C00070E080E090E00E948C0661E088E894E077
:1040D0000E94E4088BE990E00197F1F760E088E83E
:1040E00094E00E94E4080E94C6064B015C0188E847
:1040F00094E00E949310811110C00E94C606DC015A
:10410000CB0188199909AA09BB090397A105B10533
:1041100070F310928C0410928D040E94C6064B011D
:104120005C0188E894E00E949310882361F00E946B
:10413000C606DC01CB0188199909AA09BB090397B6
:10414000A105B10570F300E010E00E94C6064B0126
:104150005C0188E894E00E94931081110CC00E94D9
:10416000C606DC01CB0188199909AA09BB09039786
:10417000A105B10570F30E9467064B015C010E9426
:10418000C6062B013C0188E894E00E949310882326
:1041900061F00E94C606DC01CB0184199509A609CD
:1041A000B7090397A105B10570F30E946706DC010A
:1041B000CB0188199909AA09BB09F80123E0F595F3
:1041C000E7952A95E1F78997A105B10530F0E20D51
:1041D000F31D8081880F816004C0E20DF31D808192
:1041E000880F80830F5F1F4F0832110509F0ADCF94
:1041F00059814B81242F30E0250F311D8D8190E0B6
:104200002817390721F450938C0440938D04F11042
:1042100003C080918C04DBC080918D04D8C0809154
:10422000840490E082179307D1F0612F82E894E034
:104230000E94BC088091820490918304909386042C
:10424000809387048091860460E00E94B505809188
:10425000870480938204809186048093830482E89B
:1042600094E022C080917E0490E082179307D1F001
:10427000612F8CE794E00E94BC0880917C049091AF
:104280007D0490938004809381048091800460E099
:104290000E94B5058091810480937C048091800404
:1042A00080937D048CE794E00E94D808BC01990FAC
:1042B000880B990B0E947B320E94430B8AC010919D
:1042C000C3010E94F8100E94F810113049F42091A7
:1042D000C4043091C5044091C6045091C70419C06C
:1042E000123069F48091C8049091C904A091CA0465
:1042F000B091CB0489AB9AABABABBCAB0EC0133067
:1043000061F42091CC043091CD044091CE045091C1
:10431000CF0429AB3AAB4BAB5CAB69A97AA98BA9AB
:104320009CA930C069E574E0C1010E94D504C101B7
:104330000E94A20BC1010E94D0044BC060E0812FFB
:104340000E94B505812F0E945C050DC0F901EE0F9A
:10435000FF1FE657FE4F149160E0812F0E94B505C4
:10436000812F0E945006BC01990F880B990B0E9467
:104370007B3208C0609140027091410280914202FC
:10438000909143020E946C0B24C08091780490E0CD
:104390008217930729F0612F86E794E00E94BC08FA
:1043A00086E794E00E94931012C08091610490E02F
:1043B0008217930729F0612F8FE594E00E94BC08D3
:1043C00081E0209148029091C301291380E00E946E
:1043D000D30B8EE591E00E9449170C94F929D090F7
:1043E000C201ED2CF12C0D3009F4DBC608F042C0FF
:1043F000083009F481C0A8F5033009F4BFC60530C0
:1044000011F00C94F72986E090E00E942F0B7C01BC
:1044100069E084E995E00E94BC0804EF11E0109384
:104420009B0500939A05C7010E945E1088E090E00A
:104430000E942F0B7C016AE084E995E00E94BC0891
:1044400010939B0500939A05C7010E945E1088E6B1
:1044500091E00E9449178EE591E00E9449170C9463
:10446000F7290A3009F108F40CC10B3009F4C1C076
:104470000C94F729013209F446C758F40E3109F4B7
:10448000E2C6003209F4E9C6043111F00C94F729B0
:10449000BAC6093209F4F5C1023309F477C702320A
:1044A00011F00C94F729E4C687E090E00E942F0BEE
:1044B0008C018091960590E08E159F0559F06D2D29
:1044C00084E995E00E94BC0884EF91E090939B05FD
:1044D00080939A0581E691E00E94491760913C0221
:1044E00070913D0280913E0290913F020E94120E17
:1044F000C8010E945E107BC72091C3011091C401C6
:104500000091C501C090C601B090C701D09274055A
:10451000F701EE0FFF1FEE5EFE4F91819093730542
:104520008081809372052230D1F4292F30E0F90187
:10453000EE58FB4FE491E0938005F901E25AFB4FFE
:10454000E491F0E0EE0FFF1FEC5AFB4F2591349100
:1045500030937D0520937C0561E0892F18C0282FBA
:1045600030E0F901EE58FB4FE491E0938005F9014A
:10457000E25AFB4FE491F0E0EE0FFF1FEC5AFB4FC5
:104580002591349130937D0520937C0561E00E9454
:10459000B505112331F11150212F30E080917605BE
:1045A000909177052817390708F5812F880F180F84
:1045B000812F90E0E0917805F0917905E80FF91FDF
:1045C000C082E0917805F0917905E80FF91F018329
:1045D0002091780530917905F901E80FF91FB28231
:1045E00005C04B2D6C2D802F0E94350D0E94D90CDB
:1045F000FEC68091C301B701660F771FFB01EE5E17
:10460000FE4F813011F4608101C0618170E0109132
:10461000C401EBE1F2E080E090E0219131912617B6
:10462000370781F0232B41F4FC01EE0FFF1FE55EFD
:10463000FD4F7183608306C001968830910569F74C
:1046400080E090E0FC01EE0FFF1F8E0F9F1FFC012A
:10465000E456FA4F80819181A28189839A83AB834A
:10466000153B08F0C4C6898190E0FC01EE0FFF1FE6
:104670008E0F9F1FFC01E25DFB4F808187FD80C68E
:104680007CC680915C0590E08E159F0551F1D0921B
:104690005C05F701EE0FFF1FEE5EFE4F81818093F8
:1046A0005B05908190935A05809362059093630512
:1046B00061E00E94B50561E0809163050E94B50547
:1046C00080E480935E0580EC80935F058AE88093A8
:1046D000600580E289838A838B838C83C1010E9479
:1046E00014108091C3018093B8018091C40180931C
:1046F000B9018091C5018093BA018091C601809370
:10470000BB014090B8015090B9016090BA0170901F
:10471000BB0119821A821B821C8220E030E0A901B1
:10472000C301B2010E94743287FF08C077FA709407
:1047300077F8709481E2898311E001C010E06DEF99
:10474000862E99249A9473E0A72EB12C00E0B7FC32
:104750004CC0B5016F5F7F4F072E000C880B990B83
:104760000E947B329B01AC0160E070E080E291E44A
:104770000E948D2E6B017C019B01AC01C301B20133
:104780000E94592D0E94012E69A77AA78BA79CA78A
:10479000B5010B2C000C880B990B0E947B329B01FE
:1047A000AC0160E070E080E291E40E948D2E6DA784
:1047B0007EA78FA798ABA701960169A57AA58BA5BF
:1047C0009CA50E94DA329B01AC01C301B2010E9498
:1047D0007A2C2DA53EA54FA558A90E94592D0E94BF
:1047E000012E0E94CB2DCB0123C020E030E040E21F
:1047F00051E4C301B2010E94DA3232E0831691041F
:1048000084F020E030E040E251E40E94DA3242E0FD
:104810008416910431F020E030E040E251E40E943F
:10482000DA320E94CB2DCB016AE070E00E94602C4E
:10483000181619062CF0AA2019F0002381F009C0DF
:10484000A11007C0F101E10FF11D60E1680F608365
:1048500004C0F101E10FF11D80831F5F01E01430FE
:1048600060F451E0A51AB1088FEF881A980A9CEFFE
:10487000A9169FEFB90609F06ACFC1010E94141072
:10488000B6C58091270590E08E159F05A9F1F70127
:10489000EE0FFF1FEE5EFE4F808180932905918110
:1048A00090932A05D092270561E00E94B50561E04A
:1048B00080912A050E94B50561E0809129050E943A
:1048C000850561E080912A050E94850580E40E94AB
:1048D00012178CE80E941217EDE2F5E080E18E0FCE
:1048E00011928E13FDCF81E080932B0510922C0541
:1048F0008DE295E00E94B70F8091C301282F30E030
:10490000813009F069C10091C401002E000C110B27
:104910002091C5018091C60190E0A7ECB1E0E7EFDE
:10492000F1E0AF01475F5140481759071CF43D9132
:104930003193F7CFFC01E950FE4F108281E0809364
:104940002C05E12CF12CF701E950FE4F8081F70195
:10495000EB5DFA4F882321F0A3E1EA16F10481F41C
:10496000F0924105E0924005158E3AEFA70134031D
:10497000C001359F900D11240817190764F005C078
:10498000858F5FEFE51AF50ADECF0131110524F0BE
:1049900000E110E001C08C0110933E0500933D053D
:1049A00020310CF02FE027FD2FEF20933F0510164C
:1049B00011060CF069C040E050E0842F4017510709
:1049C00059F04F5F5F4F4131510509F4D0C0FA01F2
:1049D000EB5DFA4F1782F1CF403109F4C8C090E087
:1049E00037E040E2B42E492F50E04E155F050CF041
:1049F00042C0A12C8A010E5B1A4F3A9DD0011124AE
:104A0000BD0166567E4FFB01D490F0E4DF1629F11C
:104A1000FB019490F801C0800C2C000CDD08E92DFE
:104A2000F0E0CE16DF06B9F400E010E01196FD01CB
:104A3000E00FF11FE656FE4FD490E82FF0E0EB5D5B
:104A4000FA4FD0868F5F803141F00F5F1F4F0630E5
:104A5000110569F702C0A394D0CFFB0164916034C3
:104A600029F4FA01EB5DFA4FB58E91509F5F8031CA
:104A700009F0B9CF7CC0E82FF0E0EB5DFA4F10866B
:104A80008F5F8031C1F773C00817190741F4EDE259
:104A9000F5E080E18E0F11928E13FDCF68C0EE27F6
:104AA000FF27E01BF10BCF0166E070E00E94602C55
:104AB000B82EF0933E05E0933D05AB0130E087E072
:104AC000982E90E2892E4E155F050CF047C0A12C60
:104AD000CA018E5B9A4F9A9CD0011124BD01665683
:104AE0007E4FFB01D490F0E4DF1621F1FB017490BE
:104AF000FC01C0800C2C000CDD08E72DF0E0CE1688
:104B0000DF06A9F4FD01EB0DF11DB7FCFA95E556A2
:104B1000FE4F8491E32FF0E0EB5DFA4F80873F5F1B
:104B2000303138F4B394F6E0BF12ECCF02C0A39456
:104B3000D2CFB12CFB016491603431F4FA01EB5D0A
:104B4000FA4F858E415051094F5F5F4F303108F465
:104B5000BACF10933E0500933D0509C0E32FF0E066
:104B6000EB5DFA4F10863F5F3031C1F7F2CF022E76
:104B7000000C330B47E050E0421B530BEDE2F5E035
:104B800057FD14C090E19E0F8081042E01C0880F54
:104B90000A94EAF781939E13F7CF80912B05811138
:104BA000DEC2EDE2F5E090E19E0F10C02750310922
:104BB00040E14E0F808190E0022E02C095958795CE
:104BC0000A94E2F781934E13F5CFE7CF8081809569
:104BD00081939E13FBCFC3C2823009F08BC020911A
:104BE000C4010091C501A6ECB1E0EBE0F2E08D91CB
:104BF000819332E0EB31F307D1F720310CF0F7C3AA
:104C000008300CF0F4C380912B05402F002E000CCF
:104C1000550B022E000C330B6BE072E010E1160F07
:104C2000882399F188E090E0841B950B6FEFF62EB6
:104C300001C0FF0C8A95EAF7D901A35DBA4FEBE0FA
:104C4000F2E02B50324066277727641B750BC901B1
:104C50008E0F9F1F97FD14C0EC90EF2080811016DF
:104C600044F490E0042E02C0959587950A94E2F7EB
:104C700005C0062E01C0880F0A94EAF78E298C938E
:104C8000119631961E13E3CF6AC288E090E0841B30
:104C9000950B6FEFF62E01C0FF0C8A95EAF7D9014C
:104CA000A35DBA4FEBE0F2E02B5032406627772746
:104CB000641B750BC9018E0F9F1F97FD16C0EC90EA
:104CC000EF20808190E08095909510163CF4042EA2
:104CD00002C0959587950A94E2F705C0062E01C09B
:104CE000880F0A94EAF78E298C93119631961E1339
:104CF000E1CF35C22330310509F094C02091C401C1
:104D00008091C5014091C6013AE0632F0E94402C7A
:104D1000592F682F70E0FB01EE0FFF1FCF01860FA8
:104D2000971FFC01E351FC4FE491E0932D05FC013A
:104D3000E251FC4FE491E0932E05FC01E151FC4F60
:104D4000E491E0932F0510923005E52FF0E0CF01BC
:104D5000880F991F8E0F9F1FFC01E351FC4FE491B8
:104D6000E0933105FC01E251FC4FE491E093320500
:104D7000FC01E151FC4FE491E0933305842F632F54
:104D80000E94402C392F482F50E0FA01EE0FFF1FF0
:104D9000CF01840F951FFC01E351FC4FE491E09398
:104DA0003605FC01E251FC4FE491E0933705FC012C
:104DB000E151FC4FE491E093380510923905E32F5F
:104DC000F0E0CF01880F991F8E0F9F1FFC01E35168
:104DD000FC4FE491E0933A05FC01E251FC4FE49171
:104DE000E0933B05FC01E151FC4FE491E0933C056D
:104DF000222331F088E2809334058093350504C086
:104E0000109234051092350580912B058111A7C1B0
:104E1000EDE2F5E090E19E0F8081809581939E13F5
:104E2000FBCF9DC12430310509F0E1C28091C4015E
:104E30008093B8018091C5018093B9018091C6012A
:104E40008093BA018091C7018093BB01C090B801E3
:104E5000D090B901E090BA01F090BB012601370172
:104E600077FA709477F8709420E030E0A901C701D8
:104E7000B6010E94743287FF05C049A65DA6962C34
:104E8000872C04C0C9A6DDA69E2C8F2C03E020E051
:104E90003EE34CE156E4C701B6010E94802E87FD37
:104EA00003C089E08B8F0DC020E030EE49E754EC61
:104EB000C701B6010E94743218163CF08BE08B8F4C
:104EC00089E08C8F8D8F8E8FDAC020E030E0A901D1
:104ED000C701B6010E947432A82EAA1CAA24AA1CDB
:104EE00010E060E070E080E09FE3101741F020E008
:104EF00030E040E251E40E94592D1F5FF6CF9B0144
:104F0000AC0169A57DA5892D982D0E947B2C2B01D4
:104F10003C010E94D22DFB019B0110E0C9016AE017
:104F200070E00E944C2CD101A10FB11D4AE0649F9A
:104F3000201911242C931F5F9B01672B79F7812F78
:104F40008A0DB82EB00E54E05B1518F404E0081B6F
:104F50009ECF48018CE08B8F8C8F8D8F8E8FBF0101
:104F600080E090E00E9479329B01AC01C301B20164
:104F70000E947A2C6B017C0184E08B19AA2039F005
:104F8000FE01E80FF11D8BE0838F85E08B19180F70
:104F9000812F8919992069F0EBE1F0E0EC0FFD1FFA
:104FA000E80FF11DDE01A90DB11D8C9180839A944B
:104FB000EFCF002309F463C0133071F420E030E038
:104FC00040E251E4C701B6010E94DA320E94CB2DC3
:104FD000672B11F58CE077CF123071F420E030E0D0
:104FE00048EC52E4C701B6010E94DA320E94CB2D90
:104FF000672B91F48CE066CF113071F420E030E043
:105000004AE754E4C701B6010E94DA320E94CB2D70
:10501000672B11F48CE055CF01E0010FEBE1F0E0DC
:10502000EC0FFD1FE10FF11D8AE080838A948FEF62
:10503000881629F120E030E040E251E4C701B601D2
:105040000E94DA326B017C010E94CB2D11E0100F1F
:10505000EBE1F0E0EC0FFD1FE00FF11D6083072E88
:10506000000C880B990B0E947B329B01AC01C7019D
:10507000B6010E947A2C6B017C01012FD7CF8B8D5A
:1050800090E0FC01EE0FFF1F8E0F9F1FFC01E3510C
:10509000FC4FE491E0932D05FC01E251FC4FE491BB
:1050A000E0932E05FC01E151FC4FE491E0932F05C4
:1050B000109230058C8D90E0FC01EE0FFF1F8E0FDB
:1050C0009F1FFC01E351FC4FE491E0933105FC018B
:1050D000E251FC4FE491E0933205FC01E151FC4FB9
:1050E000E491E0933305109234058D8D90E0FC013E
:1050F000EE0FFF1F8E0F9F1FFC01E351FC4FE49149
:10510000E0933505FC01E251FC4FE491E093360554
:10511000FC01E151FC4FE491E09337051092380512
:105120008E8D90E0FC01EE0FFF1F8E0F9F1FFC0184
:10513000E351FC4FE491E0933905FC01E251FC4F4F
:10514000E491E0933A05FC01E151FC4FE491E093D6
:105150003B0510923C0580912B05882329F08DE2B8
:1051600095E00E94B70F43C1EDE2F5E090E19E0F9C
:105170008081809581939E13FBCFF1CF809158055C
:1051800090E08E159F0529F06D2D86E595E00E9433
:10519000BC0811E08091C301811101C010E061E001
:1051A00042C060E671E0CE014B960E94EF04809110
:1051B000BE0190E08C0103501109E12CF12CE016A6
:1051C000F10664F4F701E454FE4F6681CE014B967C
:1051D0000E9475049FEFE91AF90AF1CFBE01655EDE
:1051E0007F4FC1010E94D504C1010E94EF0EC10191
:1051F0000E94D004CE014B960E94E20ECE014B9647
:105200000E94D004F4C08091580590E08E159F054F
:1052100029F06D2D86E595E00E94BC081091C30130
:1052200061E0123040F4809156050E94B505612F6F
:10523000809156050FC0123009F460E086E595E0D4
:105240000E94E408D4C061E08D2D0E94B5056091F4
:10525000C3018D2D0E948505CAC061E08D2D0E947D
:10526000B5056091C30170E08D2D0E94F105BFC0AE
:1052700086E090E00E942F0B7C0188E090E00E9485
:105280002F0B8C0187E791E00E94491760913C0247
:1052900070913D0280913E0290913F020E94120E59
:1052A0008DE791E00E9449174801110FAA08BB0839
:1052B000B7FE16C0E0911703F09118030190F0813A
:1052C000E02D6DE287E193E0099588279927DC01BD
:1052D00088199909AA09BB094AE0BC01CD0103C09C
:1052E0004AE0C501B4010E94D10D8EE591E00E9413
:1052F00049171E141F040CF078C0B501A401C701A2
:105300000E94620D74C01091C301EBE1F2E080E0F5
:1053100090E0219131912E153F0581F0232B41F42E
:10532000FC01EE0FFF1FE55EFD4FF182E08206C03B
:1053300001968830910569F780E090E0FC01EE0F5E
:10534000FF1F8E0F9F1FFC01E456FA4F8081918151
:10535000A28189839A83AB83153B08F048C0898179
:1053600090E0FC01EE0FFF1F8E0F9F1FFC01E25D1E
:10537000FB4F808187FD04C0B701C1010E949F07D8
:10538000612F70E0C1010E941C0731C00E94C60657
:105390000E94793220E030E04AE754E40E94592D1F
:1053A00060934402709345028093460290934702B3
:1053B0001EC069E084E995E00E94BC0804EF11E09A
:1053C00010939B0500939A0580E090E00E945E1088
:1053D0006AE084E995E00E94BC0810939B05009365
:1053E0009A0580E090E00E945E100E9406170E94DD
:1053F000DC0B10922D020E945C030C94411A0E9457
:10540000C606DC01CB018C199D09AE09BF098E3E91
:105410009240A105B10510F40C944D1D0C94641D2F
:10542000220F331FF901EE5EFE4F808180935605F7
:1054300081818093570510935805009359050C946A
:105440009A1E81E08093FD048DEF94E00E941A097A
:10545000C090FE04D090FF04E0900005F09001059C
:105460006701EE24FF241C2DC0923B020E94C60659
:105470000E94793220E030E04AE754E40E94592D3E
:1054800060933702709338028093390290933A0206
:105490001A3011F01D3049F4109236021092350284
:1054A00081E0809334020C94C81B6C2D83E594E05A
:1054B0000E947504809135029091360201968134E4
:1054C000910534F490933602809335020C94C81BF6
:1054D000109236021092350283E594E00E94E20EAB
:1054E0000C94C81BCF93DF9383E594E00E94D00413
:1054F00089E594E00E94D00487E195E00E94D00401
:1055000081E195E00E94D004C2E7D5E08E819F81C1
:105510000E94C0301F821E8288859985DF91CF91BD
:105520000C94C03010921A031092190388EE93E085
:10553000A0E0B0E080931B0390931C03A0931D0395
:10554000B0931E0328E331E0309318032093170330
:1055500025EC30E0309324032093230324EC30E047
:10556000309326032093250320EC30E0309328036A
:105570002093270321EC30E030932A032093290362
:1055800022EC30E030932C0320932B0326EC30E008
:1055900030932E0320932D03109230031092310389
:1055A000109232031092330321E030E03093B505BE
:1055B0002093B4051092B6061092B7061092B80662
:1055C0001092B9061092BA061092BB061092BC0651
:1055D0001092BD061092BE061092BF061092C00631
:1055E0001092C1061092C2061092C3061092C50610
:1055F0001092C4061092C6061092C7061092C806F2
:105600001092C9061092CA061092CB061092CC06D0
:105610001092CD061092CE061092B7031092B603E8
:105620008093B8039093B903A093BA03B093BB03DC
:1056300088E491E09093B5038093B4038091520481
:10564000ACE9B5E09FEF48EB5BE08C3078F48C93ED
:10565000282F30E0F901EE0FFF1F2E0F3F1FF90139
:10566000E25DFB4F528341838F5F01C09C93139691
:1056700025E0A43BB20749F78093520460E084E937
:1056800095E00E94050981E895E00E94150960E017
:1056900082E795E00E94050980917305282F30E08C
:1056A000F901EE58FB4FE491E0938005F901E25ACD
:1056B000FB4FE491F0E0EE0FFF1FEC5AFB4F2591FA
:1056C000349130937D0520937C0561E00E94B505FF
:1056D0008EE190E090937705809376058AE590E0DF
:1056E0000E942B309093790580937805892B21F4C3
:1056F00081E991E00E94443220E030E0809176051B
:1057000090917705AC01440F551F840F951F281702
:10571000390750F4E0917805F0917905E20FF31F15
:1057200010822F5F3F4FEACF0E942B3090937B0572
:1057300080937A05892B21F481E991E00E9444321B
:1057400020E030E08091760590917705AC01440F20
:10575000551F840F951F2817390750F4E0917A05DB
:10576000F0917B05E20FF31F10822F5F3F4FEACFCE
:1057700060E084E695E00E9405098AE595E00E94D4
:10578000150986E595E00E94150985E295E00E94DD
:10579000150981E295E00E94150988E080932D04A7
:1057A00060E671E081E195E00E94EF0460E671E05F
:1057B00087E195E00E94EF0460E082E00E94B50579
:1057C00082E08093C00310921D0510921E05109276
:1057D0001F051092200510920805109207051092DF
:1057E000090510920F0581E195E00E94E20E1092EA
:1057F00010058DEF94E00E941A0961E083E00E9499
:10580000B50560E083E00E94850560E08AEB94E0E6
:105810000E94050988E68093FC0460E086EB94E032
:105820000E94050960E08FE894E00E9405098EE17E
:1058300080939A041092930460E088E894E00E94B8
:10584000050960E082E894E00E94050960E08CE7C9
:1058500094E00E94050960E086E794E00E94050953
:105860008FE594E00E9415096DEA71E089E594E006
:105870000E94EF0460E671E083E594E00C94EF048D
:10588000991B79E004C0991F961708F0961B881F92
:105890007A95C9F780950895AA1BBB1B51E107C0F3
:1058A000AA1FBB1FA617B70710F0A61BB70B881FB0
:1058B000991F5A95A9F780959095BC01CD0108953F
:1058C00097FB072E16F4009407D077FD09D00E94AD
:1058D0004C2C07FC05D03EF4909581959F4F089580
:1058E000709561957F4F0895EE0FFF1F0590F4911D
:1058F000E02D09945058BB27AA270E94922C0C94A3
:105900005E330E94503338F00E94573320F039F450
:105910009F3F19F426F40C944D330EF4E095E7FB09
:105920000C944733E92F0E946F3358F3BA1762077C
:1059300073078407950720F079F4A6F50C9491334A
:105940000EF4E0950B2EBA2FA02D0B01B90190019A
:105950000C01CA01A0011124FF27591B99F0593FDE
:1059600050F4503E68F11A16F040A22F232F342F26
:105970004427585FF3CF469537952795A795F04074
:105980005395C9F77EF41F16BA0B620B730B840B89
:10599000BAF09150A1F0FF0FBB1F661F771F881F41
:1059A000C2F70EC0BA0F621F731F841F48F4879599
:1059B00077956795B795F7959E3F08F0B0CF93958B
:1059C000880F08F09927EE0F9795879508950E9404
:1059D000503360F080E891E009F49EEF0E94573365
:1059E00028F040E851E071F45EEF0CC00C944D33A8
:1059F0000C949133E92FE0780E946F3340F3092E25
:105A0000052AB1F3261737074807590738F00E2E35
:105A100007F8E02569F0E025E0640AC0EF6307F8C5
:105A2000009407FADB01B9019D01DC01CA01AD0157
:105A3000EF930E94702D0E945E330E942A2D5F9189
:105A4000552339F02BED3FE049E450FD49EC0C942F
:105A50007B2C0895DF93DD27B92FBF7740E85FE304
:105A60001616170648075B0718F4D92F0E94852ED3
:105A70009F938F937F936F930E94232FE0EDF0E02D
:105A80000E94412E0E945E332F913F914F915F9172
:105A90000E94ED32DD2351F09058A2EA2AED3FE05A
:105AA00049EC5FE3D0785D270E94922CDF910C9443
:105AB0005E330E946D2D0C945E330E94573358F074
:105AC0000E94503340F029F45F3F29F00C94473393
:105AD00051110C9492330C944D330E946F3368F340
